{
	"data": {
		"bytecode": {
			"linkReferences": {},
			"object": "608060405234801561001057600080fd5b50336000806101000a81548173ffffffffffffffffffffffffffffffffffffffff021916908373ffffffffffffffffffffffffffffffffffffffff1602179055506001600060146101000a81548160ff0219169083151502179055506122da8061007b6000396000f3fe608060405234801561001057600080fd5b50600436106100a95760003560e01c806383eff71f1161007157806383eff71f14610164578063abfe5d5714610194578063b5e80124146101b2578063c2a86f81146101ce578063ce606ee0146101ea578063f879830414610208576100a9565b806311d38db5146100ae5780631386dc12146100ca5780631a5e7e79146100fa57806322f3e2d41461012a5780635b66e73e14610148575b600080fd5b6100c860048036038101906100c39190611422565b610226565b005b6100e460048036038101906100df9190611548565b6105bb565b6040516100f19190611584565b60405180910390f35b610114600480360381019061010f9190611548565b6105df565b604051610121919061161e565b60405180910390f35b61013261068b565b60405161013f919061165b565b60405180910390f35b610162600480360381019061015d91906116a2565b61069e565b005b61017e60048036038101906101799190611548565b6108d0565b60405161018b919061161e565b60405180910390f35b61019c61097c565b6040516101a991906118dc565b60405180910390f35b6101cc60048036038101906101c79190611422565b610af8565b005b6101e860048036038101906101e39190611422565b610e3d565b005b6101f2611182565b6040516101ff919061190d565b60405180910390f35b6102106111a6565b60405161021d919061161e565b60405180910390f35b600060149054906101000a900460ff16610275576040517f08c379a000000000000000000000000000000000000000000000000000000000815260040161026c90611974565b60405180910390fd5b600060149054906101000a900460ff16156102c5576040517f08c379a00000000000000000000000000000000000000000000000000000000081526004016102bc90611a06565b60405180910390fd5b60008054906101000a900473ffffffffffffffffffffffffffffffffffffffff1673ffffffffffffffffffffffffffffffffffffffff163373ffffffffffffffffffffffffffffffffffffffff161461031d57600080fd5b60024290806001815401808255809150506001900390600052602060002001600090919091909150556040518061010001604052808981526020018881526020018781526020018673ffffffffffffffffffffffffffffffffffffffff1681526020018573ffffffffffffffffffffffffffffffffffffffff168152602001848152602001838152602001828152506005896040516103bc9190611a62565b908152602001604051809103902060008201518160000190816103df9190611c85565b5060208201518160010190816103f59190611c85565b50604082015181600201908161040b9190611c85565b5060608201518160030160006101000a81548173ffffffffffffffffffffffffffffffffffffffff021916908373ffffffffffffffffffffffffffffffffffffffff16021790555060808201518160040160006101000a81548173ffffffffffffffffffffffffffffffffffffffff021916908373ffffffffffffffffffffffffffffffffffffffff16021790555060a0820151816005015560c0820151816006015560e08201518160070190816104c39190611c85565b5090505060026008896040516104d99190611a62565b9081526020016040518091039020600042815260200190815260200160002060006101000a81548160ff0219169083600281111561051a57610519611d57565b5b02179055506003889080600181540180825580915050600190039060005260206000200160009091909190915090816105539190611c85565b507fe9b32bbb61dff65e853e6e912c05da918b425f1b1cbca471b9ef17054f3d19da8160008054906101000a900473ffffffffffffffffffffffffffffffffffffffff1685856040516105a99493929190611dd2565b60405180910390a15050505050505050565b600281815481106105cb57600080fd5b906000526020600020016000915090505481565b600381815481106105ef57600080fd5b90600052602060002001600091509050805461060a90611aa8565b80601f016020809104026020016040519081016040528092919081815260200182805461063690611aa8565b80156106835780601f1061065857610100808354040283529160200191610683565b820191906000526020600020905b81548152906001019060200180831161066657829003601f168201915b505050505081565b600060149054906101000a900460ff1681565b8660006006826040516106b19190611a62565b90815260200160405180910390206003015414610703576040517f08c379a00000000000000000000000000000000000000000000000000000000081526004016106fa90611e7d565b60405180910390fd5b60006003805490501161074b576040517f08c379a000000000000000000000000000000000000000000000000000000000815260040161074290611f0f565b60405180910390fd5b60008054906101000a900473ffffffffffffffffffffffffffffffffffffffff1673ffffffffffffffffffffffffffffffffffffffff163373ffffffffffffffffffffffffffffffffffffffff16146107a357600080fd5b6040518060e001604052808981526020018881526020018781526020018681526020018581526020018415158152602001838152506006896040516107e89190611a62565b9081526020016040518091039020600082015181600001908161080b9190611c85565b5060208201518160010190816108219190611c85565b5060408201518160020190816108379190611c85565b506060820151816003015560808201518160040190816108579190611c85565b5060a08201518160050160006101000a81548160ff02191690831515021790555060c082015181600601908161088d9190611c85565b509050506004889080600181540180825580915050600190039060005260206000200160009091909190915090816108c59190611c85565b505050505050505050565b600481815481106108e057600080fd5b9060005260206000200160009150905080546108fb90611aa8565b80601f016020809104026020016040519081016040528092919081815260200182805461092790611aa8565b80156109745780601f1061094957610100808354040283529160200191610974565b820191906000526020600020905b81548152906001019060200180831161095757829003601f168201915b505050505081565b606080606060005b600480549050811015610aef57600481815481106109a5576109a4611f2f565b5b9060005260206000200180546109ba90611aa8565b80601f01602080910402602001604051908101604052809291908181526020018280546109e690611aa8565b8015610a335780601f10610a0857610100808354040283529160200191610a33565b820191906000526020600020905b815481529060010190602001808311610a1657829003601f168201915b50505050509150600682604051610a4a9190611a62565b9081526020016040518091039020600001600683604051610a6b9190611a62565b9081526020016040518091039020600201600684604051610a8c9190611a62565b9081526020016040518091039020600101604051602001610aaf93929190612053565b604051602081830303815290604052838281518110610ad157610ad0611f2f565b5b60200260200101819052508080610ae7906120e0565b915050610984565b50819250505090565b600060149054906101000a900460ff16610b47576040517f08c379a0000000000000000000000000000000000000000000000000000000008152600401610b3e90611974565b60405180910390fd5b60008054906101000a900473ffffffffffffffffffffffffffffffffffffffff1673ffffffffffffffffffffffffffffffffffffffff163373ffffffffffffffffffffffffffffffffffffffff1614610b9f57600080fd5b60024290806001815401808255809150506001900390600052602060002001600090919091909150556040518061010001604052808981526020018881526020018781526020018673ffffffffffffffffffffffffffffffffffffffff1681526020018573ffffffffffffffffffffffffffffffffffffffff16815260200184815260200183815260200182815250600589604051610c3e9190611a62565b90815260200160405180910390206000820151816000019081610c619190611c85565b506020820151816001019081610c779190611c85565b506040820151816002019081610c8d9190611c85565b5060608201518160030160006101000a81548173ffffffffffffffffffffffffffffffffffffffff021916908373ffffffffffffffffffffffffffffffffffffffff16021790555060808201518160040160006101000a81548173ffffffffffffffffffffffffffffffffffffffff021916908373ffffffffffffffffffffffffffffffffffffffff16021790555060a0820151816005015560c0820151816006015560e0820151816007019081610d459190611c85565b509050506001600889604051610d5b9190611a62565b9081526020016040518091039020600042815260200190815260200160002060006101000a81548160ff02191690836002811115610d9c57610d9b611d57565b5b0217905550600388908060018154018082558091505060019003906000526020600020016000909190919091509081610dd59190611c85565b507fe9b32bbb61dff65e853e6e912c05da918b425f1b1cbca471b9ef17054f3d19da8160008054906101000a900473ffffffffffffffffffffffffffffffffffffffff168585604051610e2b949392919061219a565b60405180910390a15050505050505050565b600060149054906101000a900460ff16610e8c576040517f08c379a0000000000000000000000000000000000000000000000000000000008152600401610e8390611974565b60405180910390fd5b60008054906101000a900473ffffffffffffffffffffffffffffffffffffffff1673ffffffffffffffffffffffffffffffffffffffff163373ffffffffffffffffffffffffffffffffffffffff1614610ee457600080fd5b60024290806001815401808255809150506001900390600052602060002001600090919091909150556040518061010001604052808981526020018881526020018781526020018673ffffffffffffffffffffffffffffffffffffffff1681526020018573ffffffffffffffffffffffffffffffffffffffff16815260200184815260200183815260200182815250600589604051610f839190611a62565b90815260200160405180910390206000820151816000019081610fa69190611c85565b506020820151816001019081610fbc9190611c85565b506040820151816002019081610fd29190611c85565b5060608201518160030160006101000a81548173ffffffffffffffffffffffffffffffffffffffff021916908373ffffffffffffffffffffffffffffffffffffffff16021790555060808201518160040160006101000a81548173ffffffffffffffffffffffffffffffffffffffff021916908373ffffffffffffffffffffffffffffffffffffffff16021790555060a0820151816005015560c0820151816006015560e082015181600701908161108a9190611c85565b5090505060016008896040516110a09190611a62565b9081526020016040518091039020600042815260200190815260200160002060006101000a81548160ff021916908360028111156110e1576110e0611d57565b5b021790555060038890806001815401808255809150506001900390600052602060002001600090919091909150908161111a9190611c85565b507fe9b32bbb61dff65e853e6e912c05da918b425f1b1cbca471b9ef17054f3d19da8160008054906101000a900473ffffffffffffffffffffffffffffffffffffffff1685856040516111709493929190612245565b60405180910390a15050505050505050565b60008054906101000a900473ffffffffffffffffffffffffffffffffffffffff1681565b600180546111b390611aa8565b80601f01602080910402602001604051908101604052809291908181526020018280546111df90611aa8565b801561122c5780601f106112015761010080835404028352916020019161122c565b820191906000526020600020905b81548152906001019060200180831161120f57829003601f168201915b505050505081565b6000604051905090565b600080fd5b600080fd5b600080fd5b600080fd5b6000601f19601f8301169050919050565b7f4e487b7100000000000000000000000000000000000000000000000000000000600052604160045260246000fd5b61129b82611252565b810181811067ffffffffffffffff821117156112ba576112b9611263565b5b80604052505050565b60006112cd611234565b90506112d98282611292565b919050565b600067ffffffffffffffff8211156112f9576112f8611263565b5b61130282611252565b9050602081019050919050565b82818337600083830152505050565b600061133161132c846112de565b6112c3565b90508281526020810184848401111561134d5761134c61124d565b5b61135884828561130f565b509392505050565b600082601f83011261137557611374611248565b5b813561138584826020860161131e565b91505092915050565b600073ffffffffffffffffffffffffffffffffffffffff82169050919050565b60006113b98261138e565b9050919050565b6113c9816113ae565b81146113d457600080fd5b50565b6000813590506113e6816113c0565b92915050565b6000819050919050565b6113ff816113ec565b811461140a57600080fd5b50565b60008135905061141c816113f6565b92915050565b600080600080600080600080610100898b0312156114435761144261123e565b5b600089013567ffffffffffffffff81111561146157611460611243565b5b61146d8b828c01611360565b985050602089013567ffffffffffffffff81111561148e5761148d611243565b5b61149a8b828c01611360565b975050604089013567ffffffffffffffff8111156114bb576114ba611243565b5b6114c78b828c01611360565b96505060606114d88b828c016113d7565b95505060806114e98b828c016113d7565b94505060a06114fa8b828c0161140d565b93505060c061150b8b828c0161140d565b92505060e089013567ffffffffffffffff81111561152c5761152b611243565b5b6115388b828c01611360565b9150509295985092959890939650565b60006020828403121561155e5761155d61123e565b5b600061156c8482850161140d565b91505092915050565b61157e816113ec565b82525050565b60006020820190506115996000830184611575565b92915050565b600081519050919050565b600082825260208201905092915050565b60005b838110156115d95780820151818401526020810190506115be565b60008484015250505050565b60006115f08261159f565b6115fa81856115aa565b935061160a8185602086016115bb565b61161381611252565b840191505092915050565b6000602082019050818103600083015261163881846115e5565b905092915050565b60008115159050919050565b61165581611640565b82525050565b6000602082019050611670600083018461164c565b92915050565b61167f81611640565b811461168a57600080fd5b50565b60008135905061169c81611676565b92915050565b600080600080600080600060e0888a0312156116c1576116c061123e565b5b600088013567ffffffffffffffff8111156116df576116de611243565b5b6116eb8a828b01611360565b975050602088013567ffffffffffffffff81111561170c5761170b611243565b5b6117188a828b01611360565b965050604088013567ffffffffffffffff81111561173957611738611243565b5b6117458a828b01611360565b95505060606117568a828b0161140d565b945050608088013567ffffffffffffffff81111561177757611776611243565b5b6117838a828b01611360565b93505060a06117948a828b0161168d565b92505060c088013567ffffffffffffffff8111156117b5576117b4611243565b5b6117c18a828b01611360565b91505092959891949750929550565b600081519050919050565b600082825260208201905092915050565b6000819050602082019050919050565b600082825260208201905092915050565b60006118188261159f565b61182281856117fc565b93506118328185602086016115bb565b61183b81611252565b840191505092915050565b6000611852838361180d565b905092915050565b6000602082019050919050565b6000611872826117d0565b61187c81856117db565b93508360208202850161188e856117ec565b8060005b858110156118ca57848403895281516118ab8582611846565b94506118b68361185a565b925060208a01995050600181019050611892565b50829750879550505050505092915050565b600060208201905081810360008301526118f68184611867565b905092915050565b611907816113ae565b82525050565b600060208201905061192260008301846118fe565b92915050565b7f436f6e747261746f2066696e616c697a61646f00000000000000000000000000600082015250565b600061195e6013836115aa565b915061196982611928565b602082019050919050565b6000602082019050818103600083015261198d81611951565b9050919050565b7f4c6120756c74696d612067657374696f6e20796120667565206566656374756160008201527f646120636f6e20657869746f0000000000000000000000000000000000000000602082015250565b60006119f0602c836115aa565b91506119fb82611994565b604082019050919050565b60006020820190508181036000830152611a1f816119e3565b9050919050565b600081905092915050565b6000611a3c8261159f565b611a468185611a26565b9350611a568185602086016115bb565b80840191505092915050565b6000611a6e8284611a31565b915081905092915050565b7f4e487b7100000000000000000000000000000000000000000000000000000000600052602260045260246000fd5b60006002820490506001821680611ac057607f821691505b602082108103611ad357611ad2611a79565b5b50919050565b60008190508160005260206000209050919050565b60006020601f8301049050919050565b600082821b905092915050565b600060088302611b3b7fffffffffffffffffffffffffffffffffffffffffffffffffffffffffffffffff82611afe565b611b458683611afe565b95508019841693508086168417925050509392505050565b6000819050919050565b6000611b82611b7d611b78846113ec565b611b5d565b6113ec565b9050919050565b6000819050919050565b611b9c83611b67565b611bb0611ba882611b89565b848454611b0b565b825550505050565b600090565b611bc5611bb8565b611bd0818484611b93565b505050565b5b81811015611bf457611be9600082611bbd565b600181019050611bd6565b5050565b601f821115611c3957611c0a81611ad9565b611c1384611aee565b81016020851015611c22578190505b611c36611c2e85611aee565b830182611bd5565b50505b505050565b600082821c905092915050565b6000611c5c60001984600802611c3e565b1980831691505092915050565b6000611c758383611c4b565b9150826002028217905092915050565b611c8e8261159f565b67ffffffffffffffff811115611ca757611ca6611263565b5b611cb18254611aa8565b611cbc828285611bf8565b600060209050601f831160018114611cef5760008415611cdd578287015190505b611ce78582611c69565b865550611d4f565b601f198416611cfd86611ad9565b60005b82811015611d2557848901518255600182019150602085019450602081019050611d00565b86831015611d425784890151611d3e601f891682611c4b565b8355505b6001600288020188555050505b505050505050565b7f4e487b7100000000000000000000000000000000000000000000000000000000600052602160045260246000fd5b7f5472616e73616363696f6e2066696e616c697a61646100000000000000000000600082015250565b6000611dbc6016836115aa565b9150611dc782611d86565b602082019050919050565b600060a0820190508181036000830152611deb81611daf565b90508181036020830152611dff81876115e5565b9050611e0e60408301866118fe565b611e1b6060830185611575565b611e286080830184611575565b95945050505050565b7f456c20636f636865207961206578697374650000000000000000000000000000600082015250565b6000611e676012836115aa565b9150611e7282611e31565b602082019050919050565b60006020820190508181036000830152611e9681611e5a565b9050919050565b7f536f6c6f2073652070756564656e20696e74726f647563697220636f6368657360008201527f20656e206c61207072696d657261207472616e73616363696f6e000000000000602082015250565b6000611ef9603a836115aa565b9150611f0482611e9d565b604082019050919050565b60006020820190508181036000830152611f2881611eec565b9050919050565b7f4e487b7100000000000000000000000000000000000000000000000000000000600052603260045260246000fd5b7f4964204175746f6d6f76696c203a200000000000000000000000000000000000815250565b60008154611f9181611aa8565b611f9b8186611a26565b94506001821660008114611fb65760018114611fcb57611ffe565b60ff1983168652811515820286019350611ffe565b611fd485611ad9565b60005b83811015611ff657815481890152600182019150602081019050611fd7565b838801955050505b50505092915050565b7f207c7c204d6174726963756c61203a2000000000000000000000000000000000815250565b7f207c7c204d61726361203a200000000000000000000000000000000000000000815250565b600061205e82611f5e565b600f8201915061206e8286611f84565b915061207982612007565b6010820191506120898285611f84565b91506120948261202d565b600c820191506120a48284611f84565b9150819050949350505050565b7f4e487b7100000000000000000000000000000000000000000000000000000000600052601160045260246000fd5b60006120eb826113ec565b91507fffffffffffffffffffffffffffffffffffffffffffffffffffffffffffffffff820361211d5761211c6120b1565b5b600182019050919050565b7f4e75657661207472616e73616363696f6e20656a6563757461646120636f6e2060008201527f657869746f000000000000000000000000000000000000000000000000000000602082015250565b60006121846025836115aa565b915061218f82612128565b604082019050919050565b600060a08201905081810360008301526121b381612177565b905081810360208301526121c781876115e5565b90506121d660408301866118fe565b6121e36060830185611575565b6121f06080830184611575565b95945050505050565b7f4e7565766f20696e6963696f206465207472616e73616363696f6e0000000000600082015250565b600061222f601b836115aa565b915061223a826121f9565b602082019050919050565b600060a082019050818103600083015261225e81612222565b9050818103602083015261227281876115e5565b905061228160408301866118fe565b61228e6060830185611575565b61229b6080830184611575565b9594505050505056fea264697066735822122056553ba65948877f753835dec47f8908161fd1bb7d57ba64006570fc86c9caf464736f6c63430008100033",
			"opcodes": "PUSH1 0x80 PUSH1 0x40 MSTORE CALLVALUE DUP1 ISZERO PUSH2 0x10 JUMPI PUSH1 0x0 DUP1 REVERT JUMPDEST POP CALLER PUSH1 0x0 DUP1 PUSH2 0x100 EXP DUP2 SLOAD DUP2 PUSH20 0xFFFFFFFFFFFFFFFFFFFFFFFFFFFFFFFFFFFFFFFF MUL NOT AND SWAP1 DUP4 PUSH20 0xFFFFFFFFFFFFFFFFFFFFFFFFFFFFFFFFFFFFFFFF AND MUL OR SWAP1 SSTORE POP PUSH1 0x1 PUSH1 0x0 PUSH1 0x14 PUSH2 0x100 EXP DUP2 SLOAD DUP2 PUSH1 0xFF MUL NOT AND SWAP1 DUP4 ISZERO ISZERO MUL OR SWAP1 SSTORE POP PUSH2 0x22DA DUP1 PUSH2 0x7B PUSH1 0x0 CODECOPY PUSH1 0x0 RETURN INVALID PUSH1 0x80 PUSH1 0x40 MSTORE CALLVALUE DUP1 ISZERO PUSH2 0x10 JUMPI PUSH1 0x0 DUP1 REVERT JUMPDEST POP PUSH1 0x4 CALLDATASIZE LT PUSH2 0xA9 JUMPI PUSH1 0x0 CALLDATALOAD PUSH1 0xE0 SHR DUP1 PUSH4 0x83EFF71F GT PUSH2 0x71 JUMPI DUP1 PUSH4 0x83EFF71F EQ PUSH2 0x164 JUMPI DUP1 PUSH4 0xABFE5D57 EQ PUSH2 0x194 JUMPI DUP1 PUSH4 0xB5E80124 EQ PUSH2 0x1B2 JUMPI DUP1 PUSH4 0xC2A86F81 EQ PUSH2 0x1CE JUMPI DUP1 PUSH4 0xCE606EE0 EQ PUSH2 0x1EA JUMPI DUP1 PUSH4 0xF8798304 EQ PUSH2 0x208 JUMPI PUSH2 0xA9 JUMP JUMPDEST DUP1 PUSH4 0x11D38DB5 EQ PUSH2 0xAE JUMPI DUP1 PUSH4 0x1386DC12 EQ PUSH2 0xCA JUMPI DUP1 PUSH4 0x1A5E7E79 EQ PUSH2 0xFA JUMPI DUP1 PUSH4 0x22F3E2D4 EQ PUSH2 0x12A JUMPI DUP1 PUSH4 0x5B66E73E EQ PUSH2 0x148 JUMPI JUMPDEST PUSH1 0x0 DUP1 REVERT JUMPDEST PUSH2 0xC8 PUSH1 0x4 DUP1 CALLDATASIZE SUB DUP2 ADD SWAP1 PUSH2 0xC3 SWAP2 SWAP1 PUSH2 0x1422 JUMP JUMPDEST PUSH2 0x226 JUMP JUMPDEST STOP JUMPDEST PUSH2 0xE4 PUSH1 0x4 DUP1 CALLDATASIZE SUB DUP2 ADD SWAP1 PUSH2 0xDF SWAP2 SWAP1 PUSH2 0x1548 JUMP JUMPDEST PUSH2 0x5BB JUMP JUMPDEST PUSH1 0x40 MLOAD PUSH2 0xF1 SWAP2 SWAP1 PUSH2 0x1584 JUMP JUMPDEST PUSH1 0x40 MLOAD DUP1 SWAP2 SUB SWAP1 RETURN JUMPDEST PUSH2 0x114 PUSH1 0x4 DUP1 CALLDATASIZE SUB DUP2 ADD SWAP1 PUSH2 0x10F SWAP2 SWAP1 PUSH2 0x1548 JUMP JUMPDEST PUSH2 0x5DF JUMP JUMPDEST PUSH1 0x40 MLOAD PUSH2 0x121 SWAP2 SWAP1 PUSH2 0x161E JUMP JUMPDEST PUSH1 0x40 MLOAD DUP1 SWAP2 SUB SWAP1 RETURN JUMPDEST PUSH2 0x132 PUSH2 0x68B JUMP JUMPDEST PUSH1 0x40 MLOAD PUSH2 0x13F SWAP2 SWAP1 PUSH2 0x165B JUMP JUMPDEST PUSH1 0x40 MLOAD DUP1 SWAP2 SUB SWAP1 RETURN JUMPDEST PUSH2 0x162 PUSH1 0x4 DUP1 CALLDATASIZE SUB DUP2 ADD SWAP1 PUSH2 0x15D SWAP2 SWAP1 PUSH2 0x16A2 JUMP JUMPDEST PUSH2 0x69E JUMP JUMPDEST STOP JUMPDEST PUSH2 0x17E PUSH1 0x4 DUP1 CALLDATASIZE SUB DUP2 ADD SWAP1 PUSH2 0x179 SWAP2 SWAP1 PUSH2 0x1548 JUMP JUMPDEST PUSH2 0x8D0 JUMP JUMPDEST PUSH1 0x40 MLOAD PUSH2 0x18B SWAP2 SWAP1 PUSH2 0x161E JUMP JUMPDEST PUSH1 0x40 MLOAD DUP1 SWAP2 SUB SWAP1 RETURN JUMPDEST PUSH2 0x19C PUSH2 0x97C JUMP JUMPDEST PUSH1 0x40 MLOAD PUSH2 0x1A9 SWAP2 SWAP1 PUSH2 0x18DC JUMP JUMPDEST PUSH1 0x40 MLOAD DUP1 SWAP2 SUB SWAP1 RETURN JUMPDEST PUSH2 0x1CC PUSH1 0x4 DUP1 CALLDATASIZE SUB DUP2 ADD SWAP1 PUSH2 0x1C7 SWAP2 SWAP1 PUSH2 0x1422 JUMP JUMPDEST PUSH2 0xAF8 JUMP JUMPDEST STOP JUMPDEST PUSH2 0x1E8 PUSH1 0x4 DUP1 CALLDATASIZE SUB DUP2 ADD SWAP1 PUSH2 0x1E3 SWAP2 SWAP1 PUSH2 0x1422 JUMP JUMPDEST PUSH2 0xE3D JUMP JUMPDEST STOP JUMPDEST PUSH2 0x1F2 PUSH2 0x1182 JUMP JUMPDEST PUSH1 0x40 MLOAD PUSH2 0x1FF SWAP2 SWAP1 PUSH2 0x190D JUMP JUMPDEST PUSH1 0x40 MLOAD DUP1 SWAP2 SUB SWAP1 RETURN JUMPDEST PUSH2 0x210 PUSH2 0x11A6 JUMP JUMPDEST PUSH1 0x40 MLOAD PUSH2 0x21D SWAP2 SWAP1 PUSH2 0x161E JUMP JUMPDEST PUSH1 0x40 MLOAD DUP1 SWAP2 SUB SWAP1 RETURN JUMPDEST PUSH1 0x0 PUSH1 0x14 SWAP1 SLOAD SWAP1 PUSH2 0x100 EXP SWAP1 DIV PUSH1 0xFF AND PUSH2 0x275 JUMPI PUSH1 0x40 MLOAD PUSH32 0x8C379A000000000000000000000000000000000000000000000000000000000 DUP2 MSTORE PUSH1 0x4 ADD PUSH2 0x26C SWAP1 PUSH2 0x1974 JUMP JUMPDEST PUSH1 0x40 MLOAD DUP1 SWAP2 SUB SWAP1 REVERT JUMPDEST PUSH1 0x0 PUSH1 0x14 SWAP1 SLOAD SWAP1 PUSH2 0x100 EXP SWAP1 DIV PUSH1 0xFF AND ISZERO PUSH2 0x2C5 JUMPI PUSH1 0x40 MLOAD PUSH32 0x8C379A000000000000000000000000000000000000000000000000000000000 DUP2 MSTORE PUSH1 0x4 ADD PUSH2 0x2BC SWAP1 PUSH2 0x1A06 JUMP JUMPDEST PUSH1 0x40 MLOAD DUP1 SWAP2 SUB SWAP1 REVERT JUMPDEST PUSH1 0x0 DUP1 SLOAD SWAP1 PUSH2 0x100 EXP SWAP1 DIV PUSH20 0xFFFFFFFFFFFFFFFFFFFFFFFFFFFFFFFFFFFFFFFF AND PUSH20 0xFFFFFFFFFFFFFFFFFFFFFFFFFFFFFFFFFFFFFFFF AND CALLER PUSH20 0xFFFFFFFFFFFFFFFFFFFFFFFFFFFFFFFFFFFFFFFF AND EQ PUSH2 0x31D JUMPI PUSH1 0x0 DUP1 REVERT JUMPDEST PUSH1 0x2 TIMESTAMP SWAP1 DUP1 PUSH1 0x1 DUP2 SLOAD ADD DUP1 DUP3 SSTORE DUP1 SWAP2 POP POP PUSH1 0x1 SWAP1 SUB SWAP1 PUSH1 0x0 MSTORE PUSH1 0x20 PUSH1 0x0 KECCAK256 ADD PUSH1 0x0 SWAP1 SWAP2 SWAP1 SWAP2 SWAP1 SWAP2 POP SSTORE PUSH1 0x40 MLOAD DUP1 PUSH2 0x100 ADD PUSH1 0x40 MSTORE DUP1 DUP10 DUP2 MSTORE PUSH1 0x20 ADD DUP9 DUP2 MSTORE PUSH1 0x20 ADD DUP8 DUP2 MSTORE PUSH1 0x20 ADD DUP7 PUSH20 0xFFFFFFFFFFFFFFFFFFFFFFFFFFFFFFFFFFFFFFFF AND DUP2 MSTORE PUSH1 0x20 ADD DUP6 PUSH20 0xFFFFFFFFFFFFFFFFFFFFFFFFFFFFFFFFFFFFFFFF AND DUP2 MSTORE PUSH1 0x20 ADD DUP5 DUP2 MSTORE PUSH1 0x20 ADD DUP4 DUP2 MSTORE PUSH1 0x20 ADD DUP3 DUP2 MSTORE POP PUSH1 0x5 DUP10 PUSH1 0x40 MLOAD PUSH2 0x3BC SWAP2 SWAP1 PUSH2 0x1A62 JUMP JUMPDEST SWAP1 DUP2 MSTORE PUSH1 0x20 ADD PUSH1 0x40 MLOAD DUP1 SWAP2 SUB SWAP1 KECCAK256 PUSH1 0x0 DUP3 ADD MLOAD DUP2 PUSH1 0x0 ADD SWAP1 DUP2 PUSH2 0x3DF SWAP2 SWAP1 PUSH2 0x1C85 JUMP JUMPDEST POP PUSH1 0x20 DUP3 ADD MLOAD DUP2 PUSH1 0x1 ADD SWAP1 DUP2 PUSH2 0x3F5 SWAP2 SWAP1 PUSH2 0x1C85 JUMP JUMPDEST POP PUSH1 0x40 DUP3 ADD MLOAD DUP2 PUSH1 0x2 ADD SWAP1 DUP2 PUSH2 0x40B SWAP2 SWAP1 PUSH2 0x1C85 JUMP JUMPDEST POP PUSH1 0x60 DUP3 ADD MLOAD DUP2 PUSH1 0x3 ADD PUSH1 0x0 PUSH2 0x100 EXP DUP2 SLOAD DUP2 PUSH20 0xFFFFFFFFFFFFFFFFFFFFFFFFFFFFFFFFFFFFFFFF MUL NOT AND SWAP1 DUP4 PUSH20 0xFFFFFFFFFFFFFFFFFFFFFFFFFFFFFFFFFFFFFFFF AND MUL OR SWAP1 SSTORE POP PUSH1 0x80 DUP3 ADD MLOAD DUP2 PUSH1 0x4 ADD PUSH1 0x0 PUSH2 0x100 EXP DUP2 SLOAD DUP2 PUSH20 0xFFFFFFFFFFFFFFFFFFFFFFFFFFFFFFFFFFFFFFFF MUL NOT AND SWAP1 DUP4 PUSH20 0xFFFFFFFFFFFFFFFFFFFFFFFFFFFFFFFFFFFFFFFF AND MUL OR SWAP1 SSTORE POP PUSH1 0xA0 DUP3 ADD MLOAD DUP2 PUSH1 0x5 ADD SSTORE PUSH1 0xC0 DUP3 ADD MLOAD DUP2 PUSH1 0x6 ADD SSTORE PUSH1 0xE0 DUP3 ADD MLOAD DUP2 PUSH1 0x7 ADD SWAP1 DUP2 PUSH2 0x4C3 SWAP2 SWAP1 PUSH2 0x1C85 JUMP JUMPDEST POP SWAP1 POP POP PUSH1 0x2 PUSH1 0x8 DUP10 PUSH1 0x40 MLOAD PUSH2 0x4D9 SWAP2 SWAP1 PUSH2 0x1A62 JUMP JUMPDEST SWAP1 DUP2 MSTORE PUSH1 0x20 ADD PUSH1 0x40 MLOAD DUP1 SWAP2 SUB SWAP1 KECCAK256 PUSH1 0x0 TIMESTAMP DUP2 MSTORE PUSH1 0x20 ADD SWAP1 DUP2 MSTORE PUSH1 0x20 ADD PUSH1 0x0 KECCAK256 PUSH1 0x0 PUSH2 0x100 EXP DUP2 SLOAD DUP2 PUSH1 0xFF MUL NOT AND SWAP1 DUP4 PUSH1 0x2 DUP2 GT ISZERO PUSH2 0x51A JUMPI PUSH2 0x519 PUSH2 0x1D57 JUMP JUMPDEST JUMPDEST MUL OR SWAP1 SSTORE POP PUSH1 0x3 DUP9 SWAP1 DUP1 PUSH1 0x1 DUP2 SLOAD ADD DUP1 DUP3 SSTORE DUP1 SWAP2 POP POP PUSH1 0x1 SWAP1 SUB SWAP1 PUSH1 0x0 MSTORE PUSH1 0x20 PUSH1 0x0 KECCAK256 ADD PUSH1 0x0 SWAP1 SWAP2 SWAP1 SWAP2 SWAP1 SWAP2 POP SWAP1 DUP2 PUSH2 0x553 SWAP2 SWAP1 PUSH2 0x1C85 JUMP JUMPDEST POP PUSH32 0xE9B32BBB61DFF65E853E6E912C05DA918B425F1B1CBCA471B9EF17054F3D19DA DUP2 PUSH1 0x0 DUP1 SLOAD SWAP1 PUSH2 0x100 EXP SWAP1 DIV PUSH20 0xFFFFFFFFFFFFFFFFFFFFFFFFFFFFFFFFFFFFFFFF AND DUP6 DUP6 PUSH1 0x40 MLOAD PUSH2 0x5A9 SWAP5 SWAP4 SWAP3 SWAP2 SWAP1 PUSH2 0x1DD2 JUMP JUMPDEST PUSH1 0x40 MLOAD DUP1 SWAP2 SUB SWAP1 LOG1 POP POP POP POP POP POP POP POP JUMP JUMPDEST PUSH1 0x2 DUP2 DUP2 SLOAD DUP2 LT PUSH2 0x5CB JUMPI PUSH1 0x0 DUP1 REVERT JUMPDEST SWAP1 PUSH1 0x0 MSTORE PUSH1 0x20 PUSH1 0x0 KECCAK256 ADD PUSH1 0x0 SWAP2 POP SWAP1 POP SLOAD DUP2 JUMP JUMPDEST PUSH1 0x3 DUP2 DUP2 SLOAD DUP2 LT PUSH2 0x5EF JUMPI PUSH1 0x0 DUP1 REVERT JUMPDEST SWAP1 PUSH1 0x0 MSTORE PUSH1 0x20 PUSH1 0x0 KECCAK256 ADD PUSH1 0x0 SWAP2 POP SWAP1 POP DUP1 SLOAD PUSH2 0x60A SWAP1 PUSH2 0x1AA8 JUMP JUMPDEST DUP1 PUSH1 0x1F ADD PUSH1 0x20 DUP1 SWAP2 DIV MUL PUSH1 0x20 ADD PUSH1 0x40 MLOAD SWAP1 DUP2 ADD PUSH1 0x40 MSTORE DUP1 SWAP3 SWAP2 SWAP1 DUP2 DUP2 MSTORE PUSH1 0x20 ADD DUP3 DUP1 SLOAD PUSH2 0x636 SWAP1 PUSH2 0x1AA8 JUMP JUMPDEST DUP1 ISZERO PUSH2 0x683 JUMPI DUP1 PUSH1 0x1F LT PUSH2 0x658 JUMPI PUSH2 0x100 DUP1 DUP4 SLOAD DIV MUL DUP4 MSTORE SWAP2 PUSH1 0x20 ADD SWAP2 PUSH2 0x683 JUMP JUMPDEST DUP3 ADD SWAP2 SWAP1 PUSH1 0x0 MSTORE PUSH1 0x20 PUSH1 0x0 KECCAK256 SWAP1 JUMPDEST DUP2 SLOAD DUP2 MSTORE SWAP1 PUSH1 0x1 ADD SWAP1 PUSH1 0x20 ADD DUP1 DUP4 GT PUSH2 0x666 JUMPI DUP3 SWAP1 SUB PUSH1 0x1F AND DUP3 ADD SWAP2 JUMPDEST POP POP POP POP POP DUP2 JUMP JUMPDEST PUSH1 0x0 PUSH1 0x14 SWAP1 SLOAD SWAP1 PUSH2 0x100 EXP SWAP1 DIV PUSH1 0xFF AND DUP2 JUMP JUMPDEST DUP7 PUSH1 0x0 PUSH1 0x6 DUP3 PUSH1 0x40 MLOAD PUSH2 0x6B1 SWAP2 SWAP1 PUSH2 0x1A62 JUMP JUMPDEST SWAP1 DUP2 MSTORE PUSH1 0x20 ADD PUSH1 0x40 MLOAD DUP1 SWAP2 SUB SWAP1 KECCAK256 PUSH1 0x3 ADD SLOAD EQ PUSH2 0x703 JUMPI PUSH1 0x40 MLOAD PUSH32 0x8C379A000000000000000000000000000000000000000000000000000000000 DUP2 MSTORE PUSH1 0x4 ADD PUSH2 0x6FA SWAP1 PUSH2 0x1E7D JUMP JUMPDEST PUSH1 0x40 MLOAD DUP1 SWAP2 SUB SWAP1 REVERT JUMPDEST PUSH1 0x0 PUSH1 0x3 DUP1 SLOAD SWAP1 POP GT PUSH2 0x74B JUMPI PUSH1 0x40 MLOAD PUSH32 0x8C379A000000000000000000000000000000000000000000000000000000000 DUP2 MSTORE PUSH1 0x4 ADD PUSH2 0x742 SWAP1 PUSH2 0x1F0F JUMP JUMPDEST PUSH1 0x40 MLOAD DUP1 SWAP2 SUB SWAP1 REVERT JUMPDEST PUSH1 0x0 DUP1 SLOAD SWAP1 PUSH2 0x100 EXP SWAP1 DIV PUSH20 0xFFFFFFFFFFFFFFFFFFFFFFFFFFFFFFFFFFFFFFFF AND PUSH20 0xFFFFFFFFFFFFFFFFFFFFFFFFFFFFFFFFFFFFFFFF AND CALLER PUSH20 0xFFFFFFFFFFFFFFFFFFFFFFFFFFFFFFFFFFFFFFFF AND EQ PUSH2 0x7A3 JUMPI PUSH1 0x0 DUP1 REVERT JUMPDEST PUSH1 0x40 MLOAD DUP1 PUSH1 0xE0 ADD PUSH1 0x40 MSTORE DUP1 DUP10 DUP2 MSTORE PUSH1 0x20 ADD DUP9 DUP2 MSTORE PUSH1 0x20 ADD DUP8 DUP2 MSTORE PUSH1 0x20 ADD DUP7 DUP2 MSTORE PUSH1 0x20 ADD DUP6 DUP2 MSTORE PUSH1 0x20 ADD DUP5 ISZERO ISZERO DUP2 MSTORE PUSH1 0x20 ADD DUP4 DUP2 MSTORE POP PUSH1 0x6 DUP10 PUSH1 0x40 MLOAD PUSH2 0x7E8 SWAP2 SWAP1 PUSH2 0x1A62 JUMP JUMPDEST SWAP1 DUP2 MSTORE PUSH1 0x20 ADD PUSH1 0x40 MLOAD DUP1 SWAP2 SUB SWAP1 KECCAK256 PUSH1 0x0 DUP3 ADD MLOAD DUP2 PUSH1 0x0 ADD SWAP1 DUP2 PUSH2 0x80B SWAP2 SWAP1 PUSH2 0x1C85 JUMP JUMPDEST POP PUSH1 0x20 DUP3 ADD MLOAD DUP2 PUSH1 0x1 ADD SWAP1 DUP2 PUSH2 0x821 SWAP2 SWAP1 PUSH2 0x1C85 JUMP JUMPDEST POP PUSH1 0x40 DUP3 ADD MLOAD DUP2 PUSH1 0x2 ADD SWAP1 DUP2 PUSH2 0x837 SWAP2 SWAP1 PUSH2 0x1C85 JUMP JUMPDEST POP PUSH1 0x60 DUP3 ADD MLOAD DUP2 PUSH1 0x3 ADD SSTORE PUSH1 0x80 DUP3 ADD MLOAD DUP2 PUSH1 0x4 ADD SWAP1 DUP2 PUSH2 0x857 SWAP2 SWAP1 PUSH2 0x1C85 JUMP JUMPDEST POP PUSH1 0xA0 DUP3 ADD MLOAD DUP2 PUSH1 0x5 ADD PUSH1 0x0 PUSH2 0x100 EXP DUP2 SLOAD DUP2 PUSH1 0xFF MUL NOT AND SWAP1 DUP4 ISZERO ISZERO MUL OR SWAP1 SSTORE POP PUSH1 0xC0 DUP3 ADD MLOAD DUP2 PUSH1 0x6 ADD SWAP1 DUP2 PUSH2 0x88D SWAP2 SWAP1 PUSH2 0x1C85 JUMP JUMPDEST POP SWAP1 POP POP PUSH1 0x4 DUP9 SWAP1 DUP1 PUSH1 0x1 DUP2 SLOAD ADD DUP1 DUP3 SSTORE DUP1 SWAP2 POP POP PUSH1 0x1 SWAP1 SUB SWAP1 PUSH1 0x0 MSTORE PUSH1 0x20 PUSH1 0x0 KECCAK256 ADD PUSH1 0x0 SWAP1 SWAP2 SWAP1 SWAP2 SWAP1 SWAP2 POP SWAP1 DUP2 PUSH2 0x8C5 SWAP2 SWAP1 PUSH2 0x1C85 JUMP JUMPDEST POP POP POP POP POP POP POP POP POP JUMP JUMPDEST PUSH1 0x4 DUP2 DUP2 SLOAD DUP2 LT PUSH2 0x8E0 JUMPI PUSH1 0x0 DUP1 REVERT JUMPDEST SWAP1 PUSH1 0x0 MSTORE PUSH1 0x20 PUSH1 0x0 KECCAK256 ADD PUSH1 0x0 SWAP2 POP SWAP1 POP DUP1 SLOAD PUSH2 0x8FB SWAP1 PUSH2 0x1AA8 JUMP JUMPDEST DUP1 PUSH1 0x1F ADD PUSH1 0x20 DUP1 SWAP2 DIV MUL PUSH1 0x20 ADD PUSH1 0x40 MLOAD SWAP1 DUP2 ADD PUSH1 0x40 MSTORE DUP1 SWAP3 SWAP2 SWAP1 DUP2 DUP2 MSTORE PUSH1 0x20 ADD DUP3 DUP1 SLOAD PUSH2 0x927 SWAP1 PUSH2 0x1AA8 JUMP JUMPDEST DUP1 ISZERO PUSH2 0x974 JUMPI DUP1 PUSH1 0x1F LT PUSH2 0x949 JUMPI PUSH2 0x100 DUP1 DUP4 SLOAD DIV MUL DUP4 MSTORE SWAP2 PUSH1 0x20 ADD SWAP2 PUSH2 0x974 JUMP JUMPDEST DUP3 ADD SWAP2 SWAP1 PUSH1 0x0 MSTORE PUSH1 0x20 PUSH1 0x0 KECCAK256 SWAP1 JUMPDEST DUP2 SLOAD DUP2 MSTORE SWAP1 PUSH1 0x1 ADD SWAP1 PUSH1 0x20 ADD DUP1 DUP4 GT PUSH2 0x957 JUMPI DUP3 SWAP1 SUB PUSH1 0x1F AND DUP3 ADD SWAP2 JUMPDEST POP POP POP POP POP DUP2 JUMP JUMPDEST PUSH1 0x60 DUP1 PUSH1 0x60 PUSH1 0x0 JUMPDEST PUSH1 0x4 DUP1 SLOAD SWAP1 POP DUP2 LT ISZERO PUSH2 0xAEF JUMPI PUSH1 0x4 DUP2 DUP2 SLOAD DUP2 LT PUSH2 0x9A5 JUMPI PUSH2 0x9A4 PUSH2 0x1F2F JUMP JUMPDEST JUMPDEST SWAP1 PUSH1 0x0 MSTORE PUSH1 0x20 PUSH1 0x0 KECCAK256 ADD DUP1 SLOAD PUSH2 0x9BA SWAP1 PUSH2 0x1AA8 JUMP JUMPDEST DUP1 PUSH1 0x1F ADD PUSH1 0x20 DUP1 SWAP2 DIV MUL PUSH1 0x20 ADD PUSH1 0x40 MLOAD SWAP1 DUP2 ADD PUSH1 0x40 MSTORE DUP1 SWAP3 SWAP2 SWAP1 DUP2 DUP2 MSTORE PUSH1 0x20 ADD DUP3 DUP1 SLOAD PUSH2 0x9E6 SWAP1 PUSH2 0x1AA8 JUMP JUMPDEST DUP1 ISZERO PUSH2 0xA33 JUMPI DUP1 PUSH1 0x1F LT PUSH2 0xA08 JUMPI PUSH2 0x100 DUP1 DUP4 SLOAD DIV MUL DUP4 MSTORE SWAP2 PUSH1 0x20 ADD SWAP2 PUSH2 0xA33 JUMP JUMPDEST DUP3 ADD SWAP2 SWAP1 PUSH1 0x0 MSTORE PUSH1 0x20 PUSH1 0x0 KECCAK256 SWAP1 JUMPDEST DUP2 SLOAD DUP2 MSTORE SWAP1 PUSH1 0x1 ADD SWAP1 PUSH1 0x20 ADD DUP1 DUP4 GT PUSH2 0xA16 JUMPI DUP3 SWAP1 SUB PUSH1 0x1F AND DUP3 ADD SWAP2 JUMPDEST POP POP POP POP POP SWAP2 POP PUSH1 0x6 DUP3 PUSH1 0x40 MLOAD PUSH2 0xA4A SWAP2 SWAP1 PUSH2 0x1A62 JUMP JUMPDEST SWAP1 DUP2 MSTORE PUSH1 0x20 ADD PUSH1 0x40 MLOAD DUP1 SWAP2 SUB SWAP1 KECCAK256 PUSH1 0x0 ADD PUSH1 0x6 DUP4 PUSH1 0x40 MLOAD PUSH2 0xA6B SWAP2 SWAP1 PUSH2 0x1A62 JUMP JUMPDEST SWAP1 DUP2 MSTORE PUSH1 0x20 ADD PUSH1 0x40 MLOAD DUP1 SWAP2 SUB SWAP1 KECCAK256 PUSH1 0x2 ADD PUSH1 0x6 DUP5 PUSH1 0x40 MLOAD PUSH2 0xA8C SWAP2 SWAP1 PUSH2 0x1A62 JUMP JUMPDEST SWAP1 DUP2 MSTORE PUSH1 0x20 ADD PUSH1 0x40 MLOAD DUP1 SWAP2 SUB SWAP1 KECCAK256 PUSH1 0x1 ADD PUSH1 0x40 MLOAD PUSH1 0x20 ADD PUSH2 0xAAF SWAP4 SWAP3 SWAP2 SWAP1 PUSH2 0x2053 JUMP JUMPDEST PUSH1 0x40 MLOAD PUSH1 0x20 DUP2 DUP4 SUB SUB DUP2 MSTORE SWAP1 PUSH1 0x40 MSTORE DUP4 DUP3 DUP2 MLOAD DUP2 LT PUSH2 0xAD1 JUMPI PUSH2 0xAD0 PUSH2 0x1F2F JUMP JUMPDEST JUMPDEST PUSH1 0x20 MUL PUSH1 0x20 ADD ADD DUP2 SWAP1 MSTORE POP DUP1 DUP1 PUSH2 0xAE7 SWAP1 PUSH2 0x20E0 JUMP JUMPDEST SWAP2 POP POP PUSH2 0x984 JUMP JUMPDEST POP DUP2 SWAP3 POP POP POP SWAP1 JUMP JUMPDEST PUSH1 0x0 PUSH1 0x14 SWAP1 SLOAD SWAP1 PUSH2 0x100 EXP SWAP1 DIV PUSH1 0xFF AND PUSH2 0xB47 JUMPI PUSH1 0x40 MLOAD PUSH32 0x8C379A000000000000000000000000000000000000000000000000000000000 DUP2 MSTORE PUSH1 0x4 ADD PUSH2 0xB3E SWAP1 PUSH2 0x1974 JUMP JUMPDEST PUSH1 0x40 MLOAD DUP1 SWAP2 SUB SWAP1 REVERT JUMPDEST PUSH1 0x0 DUP1 SLOAD SWAP1 PUSH2 0x100 EXP SWAP1 DIV PUSH20 0xFFFFFFFFFFFFFFFFFFFFFFFFFFFFFFFFFFFFFFFF AND PUSH20 0xFFFFFFFFFFFFFFFFFFFFFFFFFFFFFFFFFFFFFFFF AND CALLER PUSH20 0xFFFFFFFFFFFFFFFFFFFFFFFFFFFFFFFFFFFFFFFF AND EQ PUSH2 0xB9F JUMPI PUSH1 0x0 DUP1 REVERT JUMPDEST PUSH1 0x2 TIMESTAMP SWAP1 DUP1 PUSH1 0x1 DUP2 SLOAD ADD DUP1 DUP3 SSTORE DUP1 SWAP2 POP POP PUSH1 0x1 SWAP1 SUB SWAP1 PUSH1 0x0 MSTORE PUSH1 0x20 PUSH1 0x0 KECCAK256 ADD PUSH1 0x0 SWAP1 SWAP2 SWAP1 SWAP2 SWAP1 SWAP2 POP SSTORE PUSH1 0x40 MLOAD DUP1 PUSH2 0x100 ADD PUSH1 0x40 MSTORE DUP1 DUP10 DUP2 MSTORE PUSH1 0x20 ADD DUP9 DUP2 MSTORE PUSH1 0x20 ADD DUP8 DUP2 MSTORE PUSH1 0x20 ADD DUP7 PUSH20 0xFFFFFFFFFFFFFFFFFFFFFFFFFFFFFFFFFFFFFFFF AND DUP2 MSTORE PUSH1 0x20 ADD DUP6 PUSH20 0xFFFFFFFFFFFFFFFFFFFFFFFFFFFFFFFFFFFFFFFF AND DUP2 MSTORE PUSH1 0x20 ADD DUP5 DUP2 MSTORE PUSH1 0x20 ADD DUP4 DUP2 MSTORE PUSH1 0x20 ADD DUP3 DUP2 MSTORE POP PUSH1 0x5 DUP10 PUSH1 0x40 MLOAD PUSH2 0xC3E SWAP2 SWAP1 PUSH2 0x1A62 JUMP JUMPDEST SWAP1 DUP2 MSTORE PUSH1 0x20 ADD PUSH1 0x40 MLOAD DUP1 SWAP2 SUB SWAP1 KECCAK256 PUSH1 0x0 DUP3 ADD MLOAD DUP2 PUSH1 0x0 ADD SWAP1 DUP2 PUSH2 0xC61 SWAP2 SWAP1 PUSH2 0x1C85 JUMP JUMPDEST POP PUSH1 0x20 DUP3 ADD MLOAD DUP2 PUSH1 0x1 ADD SWAP1 DUP2 PUSH2 0xC77 SWAP2 SWAP1 PUSH2 0x1C85 JUMP JUMPDEST POP PUSH1 0x40 DUP3 ADD MLOAD DUP2 PUSH1 0x2 ADD SWAP1 DUP2 PUSH2 0xC8D SWAP2 SWAP1 PUSH2 0x1C85 JUMP JUMPDEST POP PUSH1 0x60 DUP3 ADD MLOAD DUP2 PUSH1 0x3 ADD PUSH1 0x0 PUSH2 0x100 EXP DUP2 SLOAD DUP2 PUSH20 0xFFFFFFFFFFFFFFFFFFFFFFFFFFFFFFFFFFFFFFFF MUL NOT AND SWAP1 DUP4 PUSH20 0xFFFFFFFFFFFFFFFFFFFFFFFFFFFFFFFFFFFFFFFF AND MUL OR SWAP1 SSTORE POP PUSH1 0x80 DUP3 ADD MLOAD DUP2 PUSH1 0x4 ADD PUSH1 0x0 PUSH2 0x100 EXP DUP2 SLOAD DUP2 PUSH20 0xFFFFFFFFFFFFFFFFFFFFFFFFFFFFFFFFFFFFFFFF MUL NOT AND SWAP1 DUP4 PUSH20 0xFFFFFFFFFFFFFFFFFFFFFFFFFFFFFFFFFFFFFFFF AND MUL OR SWAP1 SSTORE POP PUSH1 0xA0 DUP3 ADD MLOAD DUP2 PUSH1 0x5 ADD SSTORE PUSH1 0xC0 DUP3 ADD MLOAD DUP2 PUSH1 0x6 ADD SSTORE PUSH1 0xE0 DUP3 ADD MLOAD DUP2 PUSH1 0x7 ADD SWAP1 DUP2 PUSH2 0xD45 SWAP2 SWAP1 PUSH2 0x1C85 JUMP JUMPDEST POP SWAP1 POP POP PUSH1 0x1 PUSH1 0x8 DUP10 PUSH1 0x40 MLOAD PUSH2 0xD5B SWAP2 SWAP1 PUSH2 0x1A62 JUMP JUMPDEST SWAP1 DUP2 MSTORE PUSH1 0x20 ADD PUSH1 0x40 MLOAD DUP1 SWAP2 SUB SWAP1 KECCAK256 PUSH1 0x0 TIMESTAMP DUP2 MSTORE PUSH1 0x20 ADD SWAP1 DUP2 MSTORE PUSH1 0x20 ADD PUSH1 0x0 KECCAK256 PUSH1 0x0 PUSH2 0x100 EXP DUP2 SLOAD DUP2 PUSH1 0xFF MUL NOT AND SWAP1 DUP4 PUSH1 0x2 DUP2 GT ISZERO PUSH2 0xD9C JUMPI PUSH2 0xD9B PUSH2 0x1D57 JUMP JUMPDEST JUMPDEST MUL OR SWAP1 SSTORE POP PUSH1 0x3 DUP9 SWAP1 DUP1 PUSH1 0x1 DUP2 SLOAD ADD DUP1 DUP3 SSTORE DUP1 SWAP2 POP POP PUSH1 0x1 SWAP1 SUB SWAP1 PUSH1 0x0 MSTORE PUSH1 0x20 PUSH1 0x0 KECCAK256 ADD PUSH1 0x0 SWAP1 SWAP2 SWAP1 SWAP2 SWAP1 SWAP2 POP SWAP1 DUP2 PUSH2 0xDD5 SWAP2 SWAP1 PUSH2 0x1C85 JUMP JUMPDEST POP PUSH32 0xE9B32BBB61DFF65E853E6E912C05DA918B425F1B1CBCA471B9EF17054F3D19DA DUP2 PUSH1 0x0 DUP1 SLOAD SWAP1 PUSH2 0x100 EXP SWAP1 DIV PUSH20 0xFFFFFFFFFFFFFFFFFFFFFFFFFFFFFFFFFFFFFFFF AND DUP6 DUP6 PUSH1 0x40 MLOAD PUSH2 0xE2B SWAP5 SWAP4 SWAP3 SWAP2 SWAP1 PUSH2 0x219A JUMP JUMPDEST PUSH1 0x40 MLOAD DUP1 SWAP2 SUB SWAP1 LOG1 POP POP POP POP POP POP POP POP JUMP JUMPDEST PUSH1 0x0 PUSH1 0x14 SWAP1 SLOAD SWAP1 PUSH2 0x100 EXP SWAP1 DIV PUSH1 0xFF AND PUSH2 0xE8C JUMPI PUSH1 0x40 MLOAD PUSH32 0x8C379A000000000000000000000000000000000000000000000000000000000 DUP2 MSTORE PUSH1 0x4 ADD PUSH2 0xE83 SWAP1 PUSH2 0x1974 JUMP JUMPDEST PUSH1 0x40 MLOAD DUP1 SWAP2 SUB SWAP1 REVERT JUMPDEST PUSH1 0x0 DUP1 SLOAD SWAP1 PUSH2 0x100 EXP SWAP1 DIV PUSH20 0xFFFFFFFFFFFFFFFFFFFFFFFFFFFFFFFFFFFFFFFF AND PUSH20 0xFFFFFFFFFFFFFFFFFFFFFFFFFFFFFFFFFFFFFFFF AND CALLER PUSH20 0xFFFFFFFFFFFFFFFFFFFFFFFFFFFFFFFFFFFFFFFF AND EQ PUSH2 0xEE4 JUMPI PUSH1 0x0 DUP1 REVERT JUMPDEST PUSH1 0x2 TIMESTAMP SWAP1 DUP1 PUSH1 0x1 DUP2 SLOAD ADD DUP1 DUP3 SSTORE DUP1 SWAP2 POP POP PUSH1 0x1 SWAP1 SUB SWAP1 PUSH1 0x0 MSTORE PUSH1 0x20 PUSH1 0x0 KECCAK256 ADD PUSH1 0x0 SWAP1 SWAP2 SWAP1 SWAP2 SWAP1 SWAP2 POP SSTORE PUSH1 0x40 MLOAD DUP1 PUSH2 0x100 ADD PUSH1 0x40 MSTORE DUP1 DUP10 DUP2 MSTORE PUSH1 0x20 ADD DUP9 DUP2 MSTORE PUSH1 0x20 ADD DUP8 DUP2 MSTORE PUSH1 0x20 ADD DUP7 PUSH20 0xFFFFFFFFFFFFFFFFFFFFFFFFFFFFFFFFFFFFFFFF AND DUP2 MSTORE PUSH1 0x20 ADD DUP6 PUSH20 0xFFFFFFFFFFFFFFFFFFFFFFFFFFFFFFFFFFFFFFFF AND DUP2 MSTORE PUSH1 0x20 ADD DUP5 DUP2 MSTORE PUSH1 0x20 ADD DUP4 DUP2 MSTORE PUSH1 0x20 ADD DUP3 DUP2 MSTORE POP PUSH1 0x5 DUP10 PUSH1 0x40 MLOAD PUSH2 0xF83 SWAP2 SWAP1 PUSH2 0x1A62 JUMP JUMPDEST SWAP1 DUP2 MSTORE PUSH1 0x20 ADD PUSH1 0x40 MLOAD DUP1 SWAP2 SUB SWAP1 KECCAK256 PUSH1 0x0 DUP3 ADD MLOAD DUP2 PUSH1 0x0 ADD SWAP1 DUP2 PUSH2 0xFA6 SWAP2 SWAP1 PUSH2 0x1C85 JUMP JUMPDEST POP PUSH1 0x20 DUP3 ADD MLOAD DUP2 PUSH1 0x1 ADD SWAP1 DUP2 PUSH2 0xFBC SWAP2 SWAP1 PUSH2 0x1C85 JUMP JUMPDEST POP PUSH1 0x40 DUP3 ADD MLOAD DUP2 PUSH1 0x2 ADD SWAP1 DUP2 PUSH2 0xFD2 SWAP2 SWAP1 PUSH2 0x1C85 JUMP JUMPDEST POP PUSH1 0x60 DUP3 ADD MLOAD DUP2 PUSH1 0x3 ADD PUSH1 0x0 PUSH2 0x100 EXP DUP2 SLOAD DUP2 PUSH20 0xFFFFFFFFFFFFFFFFFFFFFFFFFFFFFFFFFFFFFFFF MUL NOT AND SWAP1 DUP4 PUSH20 0xFFFFFFFFFFFFFFFFFFFFFFFFFFFFFFFFFFFFFFFF AND MUL OR SWAP1 SSTORE POP PUSH1 0x80 DUP3 ADD MLOAD DUP2 PUSH1 0x4 ADD PUSH1 0x0 PUSH2 0x100 EXP DUP2 SLOAD DUP2 PUSH20 0xFFFFFFFFFFFFFFFFFFFFFFFFFFFFFFFFFFFFFFFF MUL NOT AND SWAP1 DUP4 PUSH20 0xFFFFFFFFFFFFFFFFFFFFFFFFFFFFFFFFFFFFFFFF AND MUL OR SWAP1 SSTORE POP PUSH1 0xA0 DUP3 ADD MLOAD DUP2 PUSH1 0x5 ADD SSTORE PUSH1 0xC0 DUP3 ADD MLOAD DUP2 PUSH1 0x6 ADD SSTORE PUSH1 0xE0 DUP3 ADD MLOAD DUP2 PUSH1 0x7 ADD SWAP1 DUP2 PUSH2 0x108A SWAP2 SWAP1 PUSH2 0x1C85 JUMP JUMPDEST POP SWAP1 POP POP PUSH1 0x1 PUSH1 0x8 DUP10 PUSH1 0x40 MLOAD PUSH2 0x10A0 SWAP2 SWAP1 PUSH2 0x1A62 JUMP JUMPDEST SWAP1 DUP2 MSTORE PUSH1 0x20 ADD PUSH1 0x40 MLOAD DUP1 SWAP2 SUB SWAP1 KECCAK256 PUSH1 0x0 TIMESTAMP DUP2 MSTORE PUSH1 0x20 ADD SWAP1 DUP2 MSTORE PUSH1 0x20 ADD PUSH1 0x0 KECCAK256 PUSH1 0x0 PUSH2 0x100 EXP DUP2 SLOAD DUP2 PUSH1 0xFF MUL NOT AND SWAP1 DUP4 PUSH1 0x2 DUP2 GT ISZERO PUSH2 0x10E1 JUMPI PUSH2 0x10E0 PUSH2 0x1D57 JUMP JUMPDEST JUMPDEST MUL OR SWAP1 SSTORE POP PUSH1 0x3 DUP9 SWAP1 DUP1 PUSH1 0x1 DUP2 SLOAD ADD DUP1 DUP3 SSTORE DUP1 SWAP2 POP POP PUSH1 0x1 SWAP1 SUB SWAP1 PUSH1 0x0 MSTORE PUSH1 0x20 PUSH1 0x0 KECCAK256 ADD PUSH1 0x0 SWAP1 SWAP2 SWAP1 SWAP2 SWAP1 SWAP2 POP SWAP1 DUP2 PUSH2 0x111A SWAP2 SWAP1 PUSH2 0x1C85 JUMP JUMPDEST POP PUSH32 0xE9B32BBB61DFF65E853E6E912C05DA918B425F1B1CBCA471B9EF17054F3D19DA DUP2 PUSH1 0x0 DUP1 SLOAD SWAP1 PUSH2 0x100 EXP SWAP1 DIV PUSH20 0xFFFFFFFFFFFFFFFFFFFFFFFFFFFFFFFFFFFFFFFF AND DUP6 DUP6 PUSH1 0x40 MLOAD PUSH2 0x1170 SWAP5 SWAP4 SWAP3 SWAP2 SWAP1 PUSH2 0x2245 JUMP JUMPDEST PUSH1 0x40 MLOAD DUP1 SWAP2 SUB SWAP1 LOG1 POP POP POP POP POP POP POP POP JUMP JUMPDEST PUSH1 0x0 DUP1 SLOAD SWAP1 PUSH2 0x100 EXP SWAP1 DIV PUSH20 0xFFFFFFFFFFFFFFFFFFFFFFFFFFFFFFFFFFFFFFFF AND DUP2 JUMP JUMPDEST PUSH1 0x1 DUP1 SLOAD PUSH2 0x11B3 SWAP1 PUSH2 0x1AA8 JUMP JUMPDEST DUP1 PUSH1 0x1F ADD PUSH1 0x20 DUP1 SWAP2 DIV MUL PUSH1 0x20 ADD PUSH1 0x40 MLOAD SWAP1 DUP2 ADD PUSH1 0x40 MSTORE DUP1 SWAP3 SWAP2 SWAP1 DUP2 DUP2 MSTORE PUSH1 0x20 ADD DUP3 DUP1 SLOAD PUSH2 0x11DF SWAP1 PUSH2 0x1AA8 JUMP JUMPDEST DUP1 ISZERO PUSH2 0x122C JUMPI DUP1 PUSH1 0x1F LT PUSH2 0x1201 JUMPI PUSH2 0x100 DUP1 DUP4 SLOAD DIV MUL DUP4 MSTORE SWAP2 PUSH1 0x20 ADD SWAP2 PUSH2 0x122C JUMP JUMPDEST DUP3 ADD SWAP2 SWAP1 PUSH1 0x0 MSTORE PUSH1 0x20 PUSH1 0x0 KECCAK256 SWAP1 JUMPDEST DUP2 SLOAD DUP2 MSTORE SWAP1 PUSH1 0x1 ADD SWAP1 PUSH1 0x20 ADD DUP1 DUP4 GT PUSH2 0x120F JUMPI DUP3 SWAP1 SUB PUSH1 0x1F AND DUP3 ADD SWAP2 JUMPDEST POP POP POP POP POP DUP2 JUMP JUMPDEST PUSH1 0x0 PUSH1 0x40 MLOAD SWAP1 POP SWAP1 JUMP JUMPDEST PUSH1 0x0 DUP1 REVERT JUMPDEST PUSH1 0x0 DUP1 REVERT JUMPDEST PUSH1 0x0 DUP1 REVERT JUMPDEST PUSH1 0x0 DUP1 REVERT JUMPDEST PUSH1 0x0 PUSH1 0x1F NOT PUSH1 0x1F DUP4 ADD AND SWAP1 POP SWAP2 SWAP1 POP JUMP JUMPDEST PUSH32 0x4E487B7100000000000000000000000000000000000000000000000000000000 PUSH1 0x0 MSTORE PUSH1 0x41 PUSH1 0x4 MSTORE PUSH1 0x24 PUSH1 0x0 REVERT JUMPDEST PUSH2 0x129B DUP3 PUSH2 0x1252 JUMP JUMPDEST DUP2 ADD DUP2 DUP2 LT PUSH8 0xFFFFFFFFFFFFFFFF DUP3 GT OR ISZERO PUSH2 0x12BA JUMPI PUSH2 0x12B9 PUSH2 0x1263 JUMP JUMPDEST JUMPDEST DUP1 PUSH1 0x40 MSTORE POP POP POP JUMP JUMPDEST PUSH1 0x0 PUSH2 0x12CD PUSH2 0x1234 JUMP JUMPDEST SWAP1 POP PUSH2 0x12D9 DUP3 DUP3 PUSH2 0x1292 JUMP JUMPDEST SWAP2 SWAP1 POP JUMP JUMPDEST PUSH1 0x0 PUSH8 0xFFFFFFFFFFFFFFFF DUP3 GT ISZERO PUSH2 0x12F9 JUMPI PUSH2 0x12F8 PUSH2 0x1263 JUMP JUMPDEST JUMPDEST PUSH2 0x1302 DUP3 PUSH2 0x1252 JUMP JUMPDEST SWAP1 POP PUSH1 0x20 DUP2 ADD SWAP1 POP SWAP2 SWAP1 POP JUMP JUMPDEST DUP3 DUP2 DUP4 CALLDATACOPY PUSH1 0x0 DUP4 DUP4 ADD MSTORE POP POP POP JUMP JUMPDEST PUSH1 0x0 PUSH2 0x1331 PUSH2 0x132C DUP5 PUSH2 0x12DE JUMP JUMPDEST PUSH2 0x12C3 JUMP JUMPDEST SWAP1 POP DUP3 DUP2 MSTORE PUSH1 0x20 DUP2 ADD DUP5 DUP5 DUP5 ADD GT ISZERO PUSH2 0x134D JUMPI PUSH2 0x134C PUSH2 0x124D JUMP JUMPDEST JUMPDEST PUSH2 0x1358 DUP5 DUP3 DUP6 PUSH2 0x130F JUMP JUMPDEST POP SWAP4 SWAP3 POP POP POP JUMP JUMPDEST PUSH1 0x0 DUP3 PUSH1 0x1F DUP4 ADD SLT PUSH2 0x1375 JUMPI PUSH2 0x1374 PUSH2 0x1248 JUMP JUMPDEST JUMPDEST DUP2 CALLDATALOAD PUSH2 0x1385 DUP5 DUP3 PUSH1 0x20 DUP7 ADD PUSH2 0x131E JUMP JUMPDEST SWAP2 POP POP SWAP3 SWAP2 POP POP JUMP JUMPDEST PUSH1 0x0 PUSH20 0xFFFFFFFFFFFFFFFFFFFFFFFFFFFFFFFFFFFFFFFF DUP3 AND SWAP1 POP SWAP2 SWAP1 POP JUMP JUMPDEST PUSH1 0x0 PUSH2 0x13B9 DUP3 PUSH2 0x138E JUMP JUMPDEST SWAP1 POP SWAP2 SWAP1 POP JUMP JUMPDEST PUSH2 0x13C9 DUP2 PUSH2 0x13AE JUMP JUMPDEST DUP2 EQ PUSH2 0x13D4 JUMPI PUSH1 0x0 DUP1 REVERT JUMPDEST POP JUMP JUMPDEST PUSH1 0x0 DUP2 CALLDATALOAD SWAP1 POP PUSH2 0x13E6 DUP2 PUSH2 0x13C0 JUMP JUMPDEST SWAP3 SWAP2 POP POP JUMP JUMPDEST PUSH1 0x0 DUP2 SWAP1 POP SWAP2 SWAP1 POP JUMP JUMPDEST PUSH2 0x13FF DUP2 PUSH2 0x13EC JUMP JUMPDEST DUP2 EQ PUSH2 0x140A JUMPI PUSH1 0x0 DUP1 REVERT JUMPDEST POP JUMP JUMPDEST PUSH1 0x0 DUP2 CALLDATALOAD SWAP1 POP PUSH2 0x141C DUP2 PUSH2 0x13F6 JUMP JUMPDEST SWAP3 SWAP2 POP POP JUMP JUMPDEST PUSH1 0x0 DUP1 PUSH1 0x0 DUP1 PUSH1 0x0 DUP1 PUSH1 0x0 DUP1 PUSH2 0x100 DUP10 DUP12 SUB SLT ISZERO PUSH2 0x1443 JUMPI PUSH2 0x1442 PUSH2 0x123E JUMP JUMPDEST JUMPDEST PUSH1 0x0 DUP10 ADD CALLDATALOAD PUSH8 0xFFFFFFFFFFFFFFFF DUP2 GT ISZERO PUSH2 0x1461 JUMPI PUSH2 0x1460 PUSH2 0x1243 JUMP JUMPDEST JUMPDEST PUSH2 0x146D DUP12 DUP3 DUP13 ADD PUSH2 0x1360 JUMP JUMPDEST SWAP9 POP POP PUSH1 0x20 DUP10 ADD CALLDATALOAD PUSH8 0xFFFFFFFFFFFFFFFF DUP2 GT ISZERO PUSH2 0x148E JUMPI PUSH2 0x148D PUSH2 0x1243 JUMP JUMPDEST JUMPDEST PUSH2 0x149A DUP12 DUP3 DUP13 ADD PUSH2 0x1360 JUMP JUMPDEST SWAP8 POP POP PUSH1 0x40 DUP10 ADD CALLDATALOAD PUSH8 0xFFFFFFFFFFFFFFFF DUP2 GT ISZERO PUSH2 0x14BB JUMPI PUSH2 0x14BA PUSH2 0x1243 JUMP JUMPDEST JUMPDEST PUSH2 0x14C7 DUP12 DUP3 DUP13 ADD PUSH2 0x1360 JUMP JUMPDEST SWAP7 POP POP PUSH1 0x60 PUSH2 0x14D8 DUP12 DUP3 DUP13 ADD PUSH2 0x13D7 JUMP JUMPDEST SWAP6 POP POP PUSH1 0x80 PUSH2 0x14E9 DUP12 DUP3 DUP13 ADD PUSH2 0x13D7 JUMP JUMPDEST SWAP5 POP POP PUSH1 0xA0 PUSH2 0x14FA DUP12 DUP3 DUP13 ADD PUSH2 0x140D JUMP JUMPDEST SWAP4 POP POP PUSH1 0xC0 PUSH2 0x150B DUP12 DUP3 DUP13 ADD PUSH2 0x140D JUMP JUMPDEST SWAP3 POP POP PUSH1 0xE0 DUP10 ADD CALLDATALOAD PUSH8 0xFFFFFFFFFFFFFFFF DUP2 GT ISZERO PUSH2 0x152C JUMPI PUSH2 0x152B PUSH2 0x1243 JUMP JUMPDEST JUMPDEST PUSH2 0x1538 DUP12 DUP3 DUP13 ADD PUSH2 0x1360 JUMP JUMPDEST SWAP2 POP POP SWAP3 SWAP6 SWAP9 POP SWAP3 SWAP6 SWAP9 SWAP1 SWAP4 SWAP7 POP JUMP JUMPDEST PUSH1 0x0 PUSH1 0x20 DUP3 DUP5 SUB SLT ISZERO PUSH2 0x155E JUMPI PUSH2 0x155D PUSH2 0x123E JUMP JUMPDEST JUMPDEST PUSH1 0x0 PUSH2 0x156C DUP5 DUP3 DUP6 ADD PUSH2 0x140D JUMP JUMPDEST SWAP2 POP POP SWAP3 SWAP2 POP POP JUMP JUMPDEST PUSH2 0x157E DUP2 PUSH2 0x13EC JUMP JUMPDEST DUP3 MSTORE POP POP JUMP JUMPDEST PUSH1 0x0 PUSH1 0x20 DUP3 ADD SWAP1 POP PUSH2 0x1599 PUSH1 0x0 DUP4 ADD DUP5 PUSH2 0x1575 JUMP JUMPDEST SWAP3 SWAP2 POP POP JUMP JUMPDEST PUSH1 0x0 DUP2 MLOAD SWAP1 POP SWAP2 SWAP1 POP JUMP JUMPDEST PUSH1 0x0 DUP3 DUP3 MSTORE PUSH1 0x20 DUP3 ADD SWAP1 POP SWAP3 SWAP2 POP POP JUMP JUMPDEST PUSH1 0x0 JUMPDEST DUP4 DUP2 LT ISZERO PUSH2 0x15D9 JUMPI DUP1 DUP3 ADD MLOAD DUP2 DUP5 ADD MSTORE PUSH1 0x20 DUP2 ADD SWAP1 POP PUSH2 0x15BE JUMP JUMPDEST PUSH1 0x0 DUP5 DUP5 ADD MSTORE POP POP POP POP JUMP JUMPDEST PUSH1 0x0 PUSH2 0x15F0 DUP3 PUSH2 0x159F JUMP JUMPDEST PUSH2 0x15FA DUP2 DUP6 PUSH2 0x15AA JUMP JUMPDEST SWAP4 POP PUSH2 0x160A DUP2 DUP6 PUSH1 0x20 DUP7 ADD PUSH2 0x15BB JUMP JUMPDEST PUSH2 0x1613 DUP2 PUSH2 0x1252 JUMP JUMPDEST DUP5 ADD SWAP2 POP POP SWAP3 SWAP2 POP POP JUMP JUMPDEST PUSH1 0x0 PUSH1 0x20 DUP3 ADD SWAP1 POP DUP2 DUP2 SUB PUSH1 0x0 DUP4 ADD MSTORE PUSH2 0x1638 DUP2 DUP5 PUSH2 0x15E5 JUMP JUMPDEST SWAP1 POP SWAP3 SWAP2 POP POP JUMP JUMPDEST PUSH1 0x0 DUP2 ISZERO ISZERO SWAP1 POP SWAP2 SWAP1 POP JUMP JUMPDEST PUSH2 0x1655 DUP2 PUSH2 0x1640 JUMP JUMPDEST DUP3 MSTORE POP POP JUMP JUMPDEST PUSH1 0x0 PUSH1 0x20 DUP3 ADD SWAP1 POP PUSH2 0x1670 PUSH1 0x0 DUP4 ADD DUP5 PUSH2 0x164C JUMP JUMPDEST SWAP3 SWAP2 POP POP JUMP JUMPDEST PUSH2 0x167F DUP2 PUSH2 0x1640 JUMP JUMPDEST DUP2 EQ PUSH2 0x168A JUMPI PUSH1 0x0 DUP1 REVERT JUMPDEST POP JUMP JUMPDEST PUSH1 0x0 DUP2 CALLDATALOAD SWAP1 POP PUSH2 0x169C DUP2 PUSH2 0x1676 JUMP JUMPDEST SWAP3 SWAP2 POP POP JUMP JUMPDEST PUSH1 0x0 DUP1 PUSH1 0x0 DUP1 PUSH1 0x0 DUP1 PUSH1 0x0 PUSH1 0xE0 DUP9 DUP11 SUB SLT ISZERO PUSH2 0x16C1 JUMPI PUSH2 0x16C0 PUSH2 0x123E JUMP JUMPDEST JUMPDEST PUSH1 0x0 DUP9 ADD CALLDATALOAD PUSH8 0xFFFFFFFFFFFFFFFF DUP2 GT ISZERO PUSH2 0x16DF JUMPI PUSH2 0x16DE PUSH2 0x1243 JUMP JUMPDEST JUMPDEST PUSH2 0x16EB DUP11 DUP3 DUP12 ADD PUSH2 0x1360 JUMP JUMPDEST SWAP8 POP POP PUSH1 0x20 DUP9 ADD CALLDATALOAD PUSH8 0xFFFFFFFFFFFFFFFF DUP2 GT ISZERO PUSH2 0x170C JUMPI PUSH2 0x170B PUSH2 0x1243 JUMP JUMPDEST JUMPDEST PUSH2 0x1718 DUP11 DUP3 DUP12 ADD PUSH2 0x1360 JUMP JUMPDEST SWAP7 POP POP PUSH1 0x40 DUP9 ADD CALLDATALOAD PUSH8 0xFFFFFFFFFFFFFFFF DUP2 GT ISZERO PUSH2 0x1739 JUMPI PUSH2 0x1738 PUSH2 0x1243 JUMP JUMPDEST JUMPDEST PUSH2 0x1745 DUP11 DUP3 DUP12 ADD PUSH2 0x1360 JUMP JUMPDEST SWAP6 POP POP PUSH1 0x60 PUSH2 0x1756 DUP11 DUP3 DUP12 ADD PUSH2 0x140D JUMP JUMPDEST SWAP5 POP POP PUSH1 0x80 DUP9 ADD CALLDATALOAD PUSH8 0xFFFFFFFFFFFFFFFF DUP2 GT ISZERO PUSH2 0x1777 JUMPI PUSH2 0x1776 PUSH2 0x1243 JUMP JUMPDEST JUMPDEST PUSH2 0x1783 DUP11 DUP3 DUP12 ADD PUSH2 0x1360 JUMP JUMPDEST SWAP4 POP POP PUSH1 0xA0 PUSH2 0x1794 DUP11 DUP3 DUP12 ADD PUSH2 0x168D JUMP JUMPDEST SWAP3 POP POP PUSH1 0xC0 DUP9 ADD CALLDATALOAD PUSH8 0xFFFFFFFFFFFFFFFF DUP2 GT ISZERO PUSH2 0x17B5 JUMPI PUSH2 0x17B4 PUSH2 0x1243 JUMP JUMPDEST JUMPDEST PUSH2 0x17C1 DUP11 DUP3 DUP12 ADD PUSH2 0x1360 JUMP JUMPDEST SWAP2 POP POP SWAP3 SWAP6 SWAP9 SWAP2 SWAP5 SWAP8 POP SWAP3 SWAP6 POP JUMP JUMPDEST PUSH1 0x0 DUP2 MLOAD SWAP1 POP SWAP2 SWAP1 POP JUMP JUMPDEST PUSH1 0x0 DUP3 DUP3 MSTORE PUSH1 0x20 DUP3 ADD SWAP1 POP SWAP3 SWAP2 POP POP JUMP JUMPDEST PUSH1 0x0 DUP2 SWAP1 POP PUSH1 0x20 DUP3 ADD SWAP1 POP SWAP2 SWAP1 POP JUMP JUMPDEST PUSH1 0x0 DUP3 DUP3 MSTORE PUSH1 0x20 DUP3 ADD SWAP1 POP SWAP3 SWAP2 POP POP JUMP JUMPDEST PUSH1 0x0 PUSH2 0x1818 DUP3 PUSH2 0x159F JUMP JUMPDEST PUSH2 0x1822 DUP2 DUP6 PUSH2 0x17FC JUMP JUMPDEST SWAP4 POP PUSH2 0x1832 DUP2 DUP6 PUSH1 0x20 DUP7 ADD PUSH2 0x15BB JUMP JUMPDEST PUSH2 0x183B DUP2 PUSH2 0x1252 JUMP JUMPDEST DUP5 ADD SWAP2 POP POP SWAP3 SWAP2 POP POP JUMP JUMPDEST PUSH1 0x0 PUSH2 0x1852 DUP4 DUP4 PUSH2 0x180D JUMP JUMPDEST SWAP1 POP SWAP3 SWAP2 POP POP JUMP JUMPDEST PUSH1 0x0 PUSH1 0x20 DUP3 ADD SWAP1 POP SWAP2 SWAP1 POP JUMP JUMPDEST PUSH1 0x0 PUSH2 0x1872 DUP3 PUSH2 0x17D0 JUMP JUMPDEST PUSH2 0x187C DUP2 DUP6 PUSH2 0x17DB JUMP JUMPDEST SWAP4 POP DUP4 PUSH1 0x20 DUP3 MUL DUP6 ADD PUSH2 0x188E DUP6 PUSH2 0x17EC JUMP JUMPDEST DUP1 PUSH1 0x0 JUMPDEST DUP6 DUP2 LT ISZERO PUSH2 0x18CA JUMPI DUP5 DUP5 SUB DUP10 MSTORE DUP2 MLOAD PUSH2 0x18AB DUP6 DUP3 PUSH2 0x1846 JUMP JUMPDEST SWAP5 POP PUSH2 0x18B6 DUP4 PUSH2 0x185A JUMP JUMPDEST SWAP3 POP PUSH1 0x20 DUP11 ADD SWAP10 POP POP PUSH1 0x1 DUP2 ADD SWAP1 POP PUSH2 0x1892 JUMP JUMPDEST POP DUP3 SWAP8 POP DUP8 SWAP6 POP POP POP POP POP POP SWAP3 SWAP2 POP POP JUMP JUMPDEST PUSH1 0x0 PUSH1 0x20 DUP3 ADD SWAP1 POP DUP2 DUP2 SUB PUSH1 0x0 DUP4 ADD MSTORE PUSH2 0x18F6 DUP2 DUP5 PUSH2 0x1867 JUMP JUMPDEST SWAP1 POP SWAP3 SWAP2 POP POP JUMP JUMPDEST PUSH2 0x1907 DUP2 PUSH2 0x13AE JUMP JUMPDEST DUP3 MSTORE POP POP JUMP JUMPDEST PUSH1 0x0 PUSH1 0x20 DUP3 ADD SWAP1 POP PUSH2 0x1922 PUSH1 0x0 DUP4 ADD DUP5 PUSH2 0x18FE JUMP JUMPDEST SWAP3 SWAP2 POP POP JUMP JUMPDEST PUSH32 0x436F6E747261746F2066696E616C697A61646F00000000000000000000000000 PUSH1 0x0 DUP3 ADD MSTORE POP JUMP JUMPDEST PUSH1 0x0 PUSH2 0x195E PUSH1 0x13 DUP4 PUSH2 0x15AA JUMP JUMPDEST SWAP2 POP PUSH2 0x1969 DUP3 PUSH2 0x1928 JUMP JUMPDEST PUSH1 0x20 DUP3 ADD SWAP1 POP SWAP2 SWAP1 POP JUMP JUMPDEST PUSH1 0x0 PUSH1 0x20 DUP3 ADD SWAP1 POP DUP2 DUP2 SUB PUSH1 0x0 DUP4 ADD MSTORE PUSH2 0x198D DUP2 PUSH2 0x1951 JUMP JUMPDEST SWAP1 POP SWAP2 SWAP1 POP JUMP JUMPDEST PUSH32 0x4C6120756C74696D612067657374696F6E207961206675652065666563747561 PUSH1 0x0 DUP3 ADD MSTORE PUSH32 0x646120636F6E20657869746F0000000000000000000000000000000000000000 PUSH1 0x20 DUP3 ADD MSTORE POP JUMP JUMPDEST PUSH1 0x0 PUSH2 0x19F0 PUSH1 0x2C DUP4 PUSH2 0x15AA JUMP JUMPDEST SWAP2 POP PUSH2 0x19FB DUP3 PUSH2 0x1994 JUMP JUMPDEST PUSH1 0x40 DUP3 ADD SWAP1 POP SWAP2 SWAP1 POP JUMP JUMPDEST PUSH1 0x0 PUSH1 0x20 DUP3 ADD SWAP1 POP DUP2 DUP2 SUB PUSH1 0x0 DUP4 ADD MSTORE PUSH2 0x1A1F DUP2 PUSH2 0x19E3 JUMP JUMPDEST SWAP1 POP SWAP2 SWAP1 POP JUMP JUMPDEST PUSH1 0x0 DUP2 SWAP1 POP SWAP3 SWAP2 POP POP JUMP JUMPDEST PUSH1 0x0 PUSH2 0x1A3C DUP3 PUSH2 0x159F JUMP JUMPDEST PUSH2 0x1A46 DUP2 DUP6 PUSH2 0x1A26 JUMP JUMPDEST SWAP4 POP PUSH2 0x1A56 DUP2 DUP6 PUSH1 0x20 DUP7 ADD PUSH2 0x15BB JUMP JUMPDEST DUP1 DUP5 ADD SWAP2 POP POP SWAP3 SWAP2 POP POP JUMP JUMPDEST PUSH1 0x0 PUSH2 0x1A6E DUP3 DUP5 PUSH2 0x1A31 JUMP JUMPDEST SWAP2 POP DUP2 SWAP1 POP SWAP3 SWAP2 POP POP JUMP JUMPDEST PUSH32 0x4E487B7100000000000000000000000000000000000000000000000000000000 PUSH1 0x0 MSTORE PUSH1 0x22 PUSH1 0x4 MSTORE PUSH1 0x24 PUSH1 0x0 REVERT JUMPDEST PUSH1 0x0 PUSH1 0x2 DUP3 DIV SWAP1 POP PUSH1 0x1 DUP3 AND DUP1 PUSH2 0x1AC0 JUMPI PUSH1 0x7F DUP3 AND SWAP2 POP JUMPDEST PUSH1 0x20 DUP3 LT DUP2 SUB PUSH2 0x1AD3 JUMPI PUSH2 0x1AD2 PUSH2 0x1A79 JUMP JUMPDEST JUMPDEST POP SWAP2 SWAP1 POP JUMP JUMPDEST PUSH1 0x0 DUP2 SWAP1 POP DUP2 PUSH1 0x0 MSTORE PUSH1 0x20 PUSH1 0x0 KECCAK256 SWAP1 POP SWAP2 SWAP1 POP JUMP JUMPDEST PUSH1 0x0 PUSH1 0x20 PUSH1 0x1F DUP4 ADD DIV SWAP1 POP SWAP2 SWAP1 POP JUMP JUMPDEST PUSH1 0x0 DUP3 DUP3 SHL SWAP1 POP SWAP3 SWAP2 POP POP JUMP JUMPDEST PUSH1 0x0 PUSH1 0x8 DUP4 MUL PUSH2 0x1B3B PUSH32 0xFFFFFFFFFFFFFFFFFFFFFFFFFFFFFFFFFFFFFFFFFFFFFFFFFFFFFFFFFFFFFFFF DUP3 PUSH2 0x1AFE JUMP JUMPDEST PUSH2 0x1B45 DUP7 DUP4 PUSH2 0x1AFE JUMP JUMPDEST SWAP6 POP DUP1 NOT DUP5 AND SWAP4 POP DUP1 DUP7 AND DUP5 OR SWAP3 POP POP POP SWAP4 SWAP3 POP POP POP JUMP JUMPDEST PUSH1 0x0 DUP2 SWAP1 POP SWAP2 SWAP1 POP JUMP JUMPDEST PUSH1 0x0 PUSH2 0x1B82 PUSH2 0x1B7D PUSH2 0x1B78 DUP5 PUSH2 0x13EC JUMP JUMPDEST PUSH2 0x1B5D JUMP JUMPDEST PUSH2 0x13EC JUMP JUMPDEST SWAP1 POP SWAP2 SWAP1 POP JUMP JUMPDEST PUSH1 0x0 DUP2 SWAP1 POP SWAP2 SWAP1 POP JUMP JUMPDEST PUSH2 0x1B9C DUP4 PUSH2 0x1B67 JUMP JUMPDEST PUSH2 0x1BB0 PUSH2 0x1BA8 DUP3 PUSH2 0x1B89 JUMP JUMPDEST DUP5 DUP5 SLOAD PUSH2 0x1B0B JUMP JUMPDEST DUP3 SSTORE POP POP POP POP JUMP JUMPDEST PUSH1 0x0 SWAP1 JUMP JUMPDEST PUSH2 0x1BC5 PUSH2 0x1BB8 JUMP JUMPDEST PUSH2 0x1BD0 DUP2 DUP5 DUP5 PUSH2 0x1B93 JUMP JUMPDEST POP POP POP JUMP JUMPDEST JUMPDEST DUP2 DUP2 LT ISZERO PUSH2 0x1BF4 JUMPI PUSH2 0x1BE9 PUSH1 0x0 DUP3 PUSH2 0x1BBD JUMP JUMPDEST PUSH1 0x1 DUP2 ADD SWAP1 POP PUSH2 0x1BD6 JUMP JUMPDEST POP POP JUMP JUMPDEST PUSH1 0x1F DUP3 GT ISZERO PUSH2 0x1C39 JUMPI PUSH2 0x1C0A DUP2 PUSH2 0x1AD9 JUMP JUMPDEST PUSH2 0x1C13 DUP5 PUSH2 0x1AEE JUMP JUMPDEST DUP2 ADD PUSH1 0x20 DUP6 LT ISZERO PUSH2 0x1C22 JUMPI DUP2 SWAP1 POP JUMPDEST PUSH2 0x1C36 PUSH2 0x1C2E DUP6 PUSH2 0x1AEE JUMP JUMPDEST DUP4 ADD DUP3 PUSH2 0x1BD5 JUMP JUMPDEST POP POP JUMPDEST POP POP POP JUMP JUMPDEST PUSH1 0x0 DUP3 DUP3 SHR SWAP1 POP SWAP3 SWAP2 POP POP JUMP JUMPDEST PUSH1 0x0 PUSH2 0x1C5C PUSH1 0x0 NOT DUP5 PUSH1 0x8 MUL PUSH2 0x1C3E JUMP JUMPDEST NOT DUP1 DUP4 AND SWAP2 POP POP SWAP3 SWAP2 POP POP JUMP JUMPDEST PUSH1 0x0 PUSH2 0x1C75 DUP4 DUP4 PUSH2 0x1C4B JUMP JUMPDEST SWAP2 POP DUP3 PUSH1 0x2 MUL DUP3 OR SWAP1 POP SWAP3 SWAP2 POP POP JUMP JUMPDEST PUSH2 0x1C8E DUP3 PUSH2 0x159F JUMP JUMPDEST PUSH8 0xFFFFFFFFFFFFFFFF DUP2 GT ISZERO PUSH2 0x1CA7 JUMPI PUSH2 0x1CA6 PUSH2 0x1263 JUMP JUMPDEST JUMPDEST PUSH2 0x1CB1 DUP3 SLOAD PUSH2 0x1AA8 JUMP JUMPDEST PUSH2 0x1CBC DUP3 DUP3 DUP6 PUSH2 0x1BF8 JUMP JUMPDEST PUSH1 0x0 PUSH1 0x20 SWAP1 POP PUSH1 0x1F DUP4 GT PUSH1 0x1 DUP2 EQ PUSH2 0x1CEF JUMPI PUSH1 0x0 DUP5 ISZERO PUSH2 0x1CDD JUMPI DUP3 DUP8 ADD MLOAD SWAP1 POP JUMPDEST PUSH2 0x1CE7 DUP6 DUP3 PUSH2 0x1C69 JUMP JUMPDEST DUP7 SSTORE POP PUSH2 0x1D4F JUMP JUMPDEST PUSH1 0x1F NOT DUP5 AND PUSH2 0x1CFD DUP7 PUSH2 0x1AD9 JUMP JUMPDEST PUSH1 0x0 JUMPDEST DUP3 DUP2 LT ISZERO PUSH2 0x1D25 JUMPI DUP5 DUP10 ADD MLOAD DUP3 SSTORE PUSH1 0x1 DUP3 ADD SWAP2 POP PUSH1 0x20 DUP6 ADD SWAP5 POP PUSH1 0x20 DUP2 ADD SWAP1 POP PUSH2 0x1D00 JUMP JUMPDEST DUP7 DUP4 LT ISZERO PUSH2 0x1D42 JUMPI DUP5 DUP10 ADD MLOAD PUSH2 0x1D3E PUSH1 0x1F DUP10 AND DUP3 PUSH2 0x1C4B JUMP JUMPDEST DUP4 SSTORE POP JUMPDEST PUSH1 0x1 PUSH1 0x2 DUP9 MUL ADD DUP9 SSTORE POP POP POP JUMPDEST POP POP POP POP POP POP JUMP JUMPDEST PUSH32 0x4E487B7100000000000000000000000000000000000000000000000000000000 PUSH1 0x0 MSTORE PUSH1 0x21 PUSH1 0x4 MSTORE PUSH1 0x24 PUSH1 0x0 REVERT JUMPDEST PUSH32 0x5472616E73616363696F6E2066696E616C697A61646100000000000000000000 PUSH1 0x0 DUP3 ADD MSTORE POP JUMP JUMPDEST PUSH1 0x0 PUSH2 0x1DBC PUSH1 0x16 DUP4 PUSH2 0x15AA JUMP JUMPDEST SWAP2 POP PUSH2 0x1DC7 DUP3 PUSH2 0x1D86 JUMP JUMPDEST PUSH1 0x20 DUP3 ADD SWAP1 POP SWAP2 SWAP1 POP JUMP JUMPDEST PUSH1 0x0 PUSH1 0xA0 DUP3 ADD SWAP1 POP DUP2 DUP2 SUB PUSH1 0x0 DUP4 ADD MSTORE PUSH2 0x1DEB DUP2 PUSH2 0x1DAF JUMP JUMPDEST SWAP1 POP DUP2 DUP2 SUB PUSH1 0x20 DUP4 ADD MSTORE PUSH2 0x1DFF DUP2 DUP8 PUSH2 0x15E5 JUMP JUMPDEST SWAP1 POP PUSH2 0x1E0E PUSH1 0x40 DUP4 ADD DUP7 PUSH2 0x18FE JUMP JUMPDEST PUSH2 0x1E1B PUSH1 0x60 DUP4 ADD DUP6 PUSH2 0x1575 JUMP JUMPDEST PUSH2 0x1E28 PUSH1 0x80 DUP4 ADD DUP5 PUSH2 0x1575 JUMP JUMPDEST SWAP6 SWAP5 POP POP POP POP POP JUMP JUMPDEST PUSH32 0x456C20636F636865207961206578697374650000000000000000000000000000 PUSH1 0x0 DUP3 ADD MSTORE POP JUMP JUMPDEST PUSH1 0x0 PUSH2 0x1E67 PUSH1 0x12 DUP4 PUSH2 0x15AA JUMP JUMPDEST SWAP2 POP PUSH2 0x1E72 DUP3 PUSH2 0x1E31 JUMP JUMPDEST PUSH1 0x20 DUP3 ADD SWAP1 POP SWAP2 SWAP1 POP JUMP JUMPDEST PUSH1 0x0 PUSH1 0x20 DUP3 ADD SWAP1 POP DUP2 DUP2 SUB PUSH1 0x0 DUP4 ADD MSTORE PUSH2 0x1E96 DUP2 PUSH2 0x1E5A JUMP JUMPDEST SWAP1 POP SWAP2 SWAP1 POP JUMP JUMPDEST PUSH32 0x536F6C6F2073652070756564656E20696E74726F647563697220636F63686573 PUSH1 0x0 DUP3 ADD MSTORE PUSH32 0x20656E206C61207072696D657261207472616E73616363696F6E000000000000 PUSH1 0x20 DUP3 ADD MSTORE POP JUMP JUMPDEST PUSH1 0x0 PUSH2 0x1EF9 PUSH1 0x3A DUP4 PUSH2 0x15AA JUMP JUMPDEST SWAP2 POP PUSH2 0x1F04 DUP3 PUSH2 0x1E9D JUMP JUMPDEST PUSH1 0x40 DUP3 ADD SWAP1 POP SWAP2 SWAP1 POP JUMP JUMPDEST PUSH1 0x0 PUSH1 0x20 DUP3 ADD SWAP1 POP DUP2 DUP2 SUB PUSH1 0x0 DUP4 ADD MSTORE PUSH2 0x1F28 DUP2 PUSH2 0x1EEC JUMP JUMPDEST SWAP1 POP SWAP2 SWAP1 POP JUMP JUMPDEST PUSH32 0x4E487B7100000000000000000000000000000000000000000000000000000000 PUSH1 0x0 MSTORE PUSH1 0x32 PUSH1 0x4 MSTORE PUSH1 0x24 PUSH1 0x0 REVERT JUMPDEST PUSH32 0x4964204175746F6D6F76696C203A200000000000000000000000000000000000 DUP2 MSTORE POP JUMP JUMPDEST PUSH1 0x0 DUP2 SLOAD PUSH2 0x1F91 DUP2 PUSH2 0x1AA8 JUMP JUMPDEST PUSH2 0x1F9B DUP2 DUP7 PUSH2 0x1A26 JUMP JUMPDEST SWAP5 POP PUSH1 0x1 DUP3 AND PUSH1 0x0 DUP2 EQ PUSH2 0x1FB6 JUMPI PUSH1 0x1 DUP2 EQ PUSH2 0x1FCB JUMPI PUSH2 0x1FFE JUMP JUMPDEST PUSH1 0xFF NOT DUP4 AND DUP7 MSTORE DUP2 ISZERO ISZERO DUP3 MUL DUP7 ADD SWAP4 POP PUSH2 0x1FFE JUMP JUMPDEST PUSH2 0x1FD4 DUP6 PUSH2 0x1AD9 JUMP JUMPDEST PUSH1 0x0 JUMPDEST DUP4 DUP2 LT ISZERO PUSH2 0x1FF6 JUMPI DUP2 SLOAD DUP2 DUP10 ADD MSTORE PUSH1 0x1 DUP3 ADD SWAP2 POP PUSH1 0x20 DUP2 ADD SWAP1 POP PUSH2 0x1FD7 JUMP JUMPDEST DUP4 DUP9 ADD SWAP6 POP POP POP JUMPDEST POP POP POP SWAP3 SWAP2 POP POP JUMP JUMPDEST PUSH32 0x207C7C204D6174726963756C61203A2000000000000000000000000000000000 DUP2 MSTORE POP JUMP JUMPDEST PUSH32 0x207C7C204D61726361203A200000000000000000000000000000000000000000 DUP2 MSTORE POP JUMP JUMPDEST PUSH1 0x0 PUSH2 0x205E DUP3 PUSH2 0x1F5E JUMP JUMPDEST PUSH1 0xF DUP3 ADD SWAP2 POP PUSH2 0x206E DUP3 DUP7 PUSH2 0x1F84 JUMP JUMPDEST SWAP2 POP PUSH2 0x2079 DUP3 PUSH2 0x2007 JUMP JUMPDEST PUSH1 0x10 DUP3 ADD SWAP2 POP PUSH2 0x2089 DUP3 DUP6 PUSH2 0x1F84 JUMP JUMPDEST SWAP2 POP PUSH2 0x2094 DUP3 PUSH2 0x202D JUMP JUMPDEST PUSH1 0xC DUP3 ADD SWAP2 POP PUSH2 0x20A4 DUP3 DUP5 PUSH2 0x1F84 JUMP JUMPDEST SWAP2 POP DUP2 SWAP1 POP SWAP5 SWAP4 POP POP POP POP JUMP JUMPDEST PUSH32 0x4E487B7100000000000000000000000000000000000000000000000000000000 PUSH1 0x0 MSTORE PUSH1 0x11 PUSH1 0x4 MSTORE PUSH1 0x24 PUSH1 0x0 REVERT JUMPDEST PUSH1 0x0 PUSH2 0x20EB DUP3 PUSH2 0x13EC JUMP JUMPDEST SWAP2 POP PUSH32 0xFFFFFFFFFFFFFFFFFFFFFFFFFFFFFFFFFFFFFFFFFFFFFFFFFFFFFFFFFFFFFFFF DUP3 SUB PUSH2 0x211D JUMPI PUSH2 0x211C PUSH2 0x20B1 JUMP JUMPDEST JUMPDEST PUSH1 0x1 DUP3 ADD SWAP1 POP SWAP2 SWAP1 POP JUMP JUMPDEST PUSH32 0x4E75657661207472616E73616363696F6E20656A6563757461646120636F6E20 PUSH1 0x0 DUP3 ADD MSTORE PUSH32 0x657869746F000000000000000000000000000000000000000000000000000000 PUSH1 0x20 DUP3 ADD MSTORE POP JUMP JUMPDEST PUSH1 0x0 PUSH2 0x2184 PUSH1 0x25 DUP4 PUSH2 0x15AA JUMP JUMPDEST SWAP2 POP PUSH2 0x218F DUP3 PUSH2 0x2128 JUMP JUMPDEST PUSH1 0x40 DUP3 ADD SWAP1 POP SWAP2 SWAP1 POP JUMP JUMPDEST PUSH1 0x0 PUSH1 0xA0 DUP3 ADD SWAP1 POP DUP2 DUP2 SUB PUSH1 0x0 DUP4 ADD MSTORE PUSH2 0x21B3 DUP2 PUSH2 0x2177 JUMP JUMPDEST SWAP1 POP DUP2 DUP2 SUB PUSH1 0x20 DUP4 ADD MSTORE PUSH2 0x21C7 DUP2 DUP8 PUSH2 0x15E5 JUMP JUMPDEST SWAP1 POP PUSH2 0x21D6 PUSH1 0x40 DUP4 ADD DUP7 PUSH2 0x18FE JUMP JUMPDEST PUSH2 0x21E3 PUSH1 0x60 DUP4 ADD DUP6 PUSH2 0x1575 JUMP JUMPDEST PUSH2 0x21F0 PUSH1 0x80 DUP4 ADD DUP5 PUSH2 0x1575 JUMP JUMPDEST SWAP6 SWAP5 POP POP POP POP POP JUMP JUMPDEST PUSH32 0x4E7565766F20696E6963696F206465207472616E73616363696F6E0000000000 PUSH1 0x0 DUP3 ADD MSTORE POP JUMP JUMPDEST PUSH1 0x0 PUSH2 0x222F PUSH1 0x1B DUP4 PUSH2 0x15AA JUMP JUMPDEST SWAP2 POP PUSH2 0x223A DUP3 PUSH2 0x21F9 JUMP JUMPDEST PUSH1 0x20 DUP3 ADD SWAP1 POP SWAP2 SWAP1 POP JUMP JUMPDEST PUSH1 0x0 PUSH1 0xA0 DUP3 ADD SWAP1 POP DUP2 DUP2 SUB PUSH1 0x0 DUP4 ADD MSTORE PUSH2 0x225E DUP2 PUSH2 0x2222 JUMP JUMPDEST SWAP1 POP DUP2 DUP2 SUB PUSH1 0x20 DUP4 ADD MSTORE PUSH2 0x2272 DUP2 DUP8 PUSH2 0x15E5 JUMP JUMPDEST SWAP1 POP PUSH2 0x2281 PUSH1 0x40 DUP4 ADD DUP7 PUSH2 0x18FE JUMP JUMPDEST PUSH2 0x228E PUSH1 0x60 DUP4 ADD DUP6 PUSH2 0x1575 JUMP JUMPDEST PUSH2 0x229B PUSH1 0x80 DUP4 ADD DUP5 PUSH2 0x1575 JUMP JUMPDEST SWAP6 SWAP5 POP POP POP POP POP JUMP INVALID LOG2 PUSH5 0x6970667358 0x22 SLT KECCAK256 JUMP SSTORE EXTCODESIZE 0xA6 MSIZE BASEFEE DUP8 PUSH32 0x753835DEC47F8908161FD1BB7D57BA64006570FC86C9CAF464736F6C63430008 LT STOP CALLER "
		},
		"gasEstimates": {
			"creation": {
				"codeDepositCost": "1784400",
				"executionCost": "50460",
				"totalCost": "1834860"
			},
			"external": {
				"contractOwner()": "2599",
				"createAndAddCar(string,string,string,uint256,string,bool,string)": "infinite",
				"getAllCars()": "infinite",
				"idCars(uint256)": "infinite",
				"idTransactions(uint256)": "infinite",
				"isActive()": "2588",
				"msgTransaction()": "infinite",
				"timestamp(uint256)": "infinite",
				"transactionEnding(string,string,string,address,address,uint256,uint256,string)": "infinite",
				"transactionProcessing(string,string,string,address,address,uint256,uint256,string)": "infinite",
				"transactionStart(string,string,string,address,address,uint256,uint256,string)": "infinite"
			}
		},
		"methodIdentifiers": {
			"contractOwner()": "ce606ee0",
			"createAndAddCar(string,string,string,uint256,string,bool,string)": "5b66e73e",
			"getAllCars()": "abfe5d57",
			"idCars(uint256)": "83eff71f",
			"idTransactions(uint256)": "1a5e7e79",
			"isActive()": "22f3e2d4",
			"msgTransaction()": "f8798304",
			"timestamp(uint256)": "1386dc12",
			"transactionEnding(string,string,string,address,address,uint256,uint256,string)": "11d38db5",
			"transactionProcessing(string,string,string,address,address,uint256,uint256,string)": "b5e80124",
			"transactionStart(string,string,string,address,address,uint256,uint256,string)": "c2a86f81"
		}
	},
	"abi": [
		{
			"inputs": [],
			"stateMutability": "nonpayable",
			"type": "constructor"
		},
		{
			"anonymous": false,
			"inputs": [
				{
					"indexed": false,
					"internalType": "string",
					"name": "msgTransaction",
					"type": "string"
				},
				{
					"indexed": false,
					"internalType": "string",
					"name": "carId",
					"type": "string"
				},
				{
					"indexed": false,
					"internalType": "string",
					"name": "brand",
					"type": "string"
				},
				{
					"indexed": false,
					"internalType": "string",
					"name": "tuition",
					"type": "string"
				},
				{
					"indexed": false,
					"internalType": "uint256",
					"name": "year",
					"type": "uint256"
				},
				{
					"indexed": false,
					"internalType": "string",
					"name": "color",
					"type": "string"
				},
				{
					"indexed": false,
					"internalType": "bool",
					"name": "sold",
					"type": "bool"
				},
				{
					"indexed": false,
					"internalType": "string",
					"name": "typeCar",
					"type": "string"
				}
			],
			"name": "createCar",
			"type": "event"
		},
		{
			"anonymous": false,
			"inputs": [
				{
					"indexed": false,
					"internalType": "string",
					"name": "msgTransaction",
					"type": "string"
				},
				{
					"indexed": false,
					"internalType": "string",
					"name": "description",
					"type": "string"
				},
				{
					"indexed": false,
					"internalType": "address",
					"name": "contractOwner",
					"type": "address"
				},
				{
					"indexed": false,
					"internalType": "uint256",
					"name": "startPrice",
					"type": "uint256"
				},
				{
					"indexed": false,
					"internalType": "uint256",
					"name": "finalPrice",
					"type": "uint256"
				}
			],
			"name": "eventNewTransaction",
			"type": "event"
		},
		{
			"anonymous": false,
			"inputs": [
				{
					"indexed": false,
					"internalType": "string",
					"name": "msgTransaction",
					"type": "string"
				},
				{
					"indexed": false,
					"internalType": "string",
					"name": "description",
					"type": "string"
				},
				{
					"indexed": false,
					"internalType": "address",
					"name": "contractOwner",
					"type": "address"
				},
				{
					"indexed": false,
					"internalType": "uint256",
					"name": "startPrice",
					"type": "uint256"
				},
				{
					"indexed": false,
					"internalType": "uint256",
					"name": "finalPrice",
					"type": "uint256"
				}
			],
			"name": "eventTransactionEnd",
			"type": "event"
		},
		{
			"anonymous": false,
			"inputs": [
				{
					"indexed": false,
					"internalType": "string",
					"name": "msgFail",
					"type": "string"
				}
			],
			"name": "fail",
			"type": "event"
		},
		{
			"inputs": [],
			"name": "contractOwner",
			"outputs": [
				{
					"internalType": "address",
					"name": "",
					"type": "address"
				}
			],
			"stateMutability": "view",
			"type": "function"
		},
		{
			"inputs": [
				{
					"internalType": "string",
					"name": "carId",
					"type": "string"
				},
				{
					"internalType": "string",
					"name": "brand",
					"type": "string"
				},
				{
					"internalType": "string",
					"name": "tuition",
					"type": "string"
				},
				{
					"internalType": "uint256",
					"name": "year",
					"type": "uint256"
				},
				{
					"internalType": "string",
					"name": "color",
					"type": "string"
				},
				{
					"internalType": "bool",
					"name": "sold",
					"type": "bool"
				},
				{
					"internalType": "string",
					"name": "typeCar",
					"type": "string"
				}
			],
			"name": "createAndAddCar",
			"outputs": [],
			"stateMutability": "nonpayable",
			"type": "function"
		},
		{
			"inputs": [],
			"name": "getAllCars",
			"outputs": [
				{
					"internalType": "string[]",
					"name": "",
					"type": "string[]"
				}
			],
			"stateMutability": "view",
			"type": "function"
		},
		{
			"inputs": [
				{
					"internalType": "uint256",
					"name": "",
					"type": "uint256"
				}
			],
			"name": "idCars",
			"outputs": [
				{
					"internalType": "string",
					"name": "",
					"type": "string"
				}
			],
			"stateMutability": "view",
			"type": "function"
		},
		{
			"inputs": [
				{
					"internalType": "uint256",
					"name": "",
					"type": "uint256"
				}
			],
			"name": "idTransactions",
			"outputs": [
				{
					"internalType": "string",
					"name": "",
					"type": "string"
				}
			],
			"stateMutability": "view",
			"type": "function"
		},
		{
			"inputs": [],
			"name": "isActive",
			"outputs": [
				{
					"internalType": "bool",
					"name": "",
					"type": "bool"
				}
			],
			"stateMutability": "view",
			"type": "function"
		},
		{
			"inputs": [],
			"name": "msgTransaction",
			"outputs": [
				{
					"internalType": "string",
					"name": "",
					"type": "string"
				}
			],
			"stateMutability": "view",
			"type": "function"
		},
		{
			"inputs": [
				{
					"internalType": "uint256",
					"name": "",
					"type": "uint256"
				}
			],
			"name": "timestamp",
			"outputs": [
				{
					"internalType": "uint256",
					"name": "",
					"type": "uint256"
				}
			],
			"stateMutability": "view",
			"type": "function"
		},
		{
			"inputs": [
				{
					"internalType": "string",
					"name": "transactionId",
					"type": "string"
				},
				{
					"internalType": "string",
					"name": "tuition",
					"type": "string"
				},
				{
					"internalType": "string",
					"name": "localtionId",
					"type": "string"
				},
				{
					"internalType": "address",
					"name": "Owner",
					"type": "address"
				},
				{
					"internalType": "address",
					"name": "supplier",
					"type": "address"
				},
				{
					"internalType": "uint256",
					"name": "oldPrice",
					"type": "uint256"
				},
				{
					"internalType": "uint256",
					"name": "newPrice",
					"type": "uint256"
				},
				{
					"internalType": "string",
					"name": "description",
					"type": "string"
				}
			],
			"name": "transactionEnding",
			"outputs": [],
			"stateMutability": "nonpayable",
			"type": "function"
		},
		{
			"inputs": [
				{
					"internalType": "string",
					"name": "transactionId",
					"type": "string"
				},
				{
					"internalType": "string",
					"name": "tuition",
					"type": "string"
				},
				{
					"internalType": "string",
					"name": "localtionId",
					"type": "string"
				},
				{
					"internalType": "address",
					"name": "Owner",
					"type": "address"
				},
				{
					"internalType": "address",
					"name": "supplier",
					"type": "address"
				},
				{
					"internalType": "uint256",
					"name": "oldPrice",
					"type": "uint256"
				},
				{
					"internalType": "uint256",
					"name": "newPrice",
					"type": "uint256"
				},
				{
					"internalType": "string",
					"name": "description",
					"type": "string"
				}
			],
			"name": "transactionProcessing",
			"outputs": [],
			"stateMutability": "nonpayable",
			"type": "function"
		},
		{
			"inputs": [
				{
					"internalType": "string",
					"name": "transactionId",
					"type": "string"
				},
				{
					"internalType": "string",
					"name": "tuition",
					"type": "string"
				},
				{
					"internalType": "string",
					"name": "localtionId",
					"type": "string"
				},
				{
					"internalType": "address",
					"name": "Owner",
					"type": "address"
				},
				{
					"internalType": "address",
					"name": "supplier",
					"type": "address"
				},
				{
					"internalType": "uint256",
					"name": "oldPrice",
					"type": "uint256"
				},
				{
					"internalType": "uint256",
					"name": "newPrice",
					"type": "uint256"
				},
				{
					"internalType": "string",
					"name": "description",
					"type": "string"
				}
			],
			"name": "transactionStart",
			"outputs": [],
			"stateMutability": "nonpayable",
			"type": "function"
		}
	]
}